{
  "contractName": "CandyCane",
  "abi": [
    {
      "inputs": [],
      "stateMutability": "nonpayable",
      "type": "constructor"
    },
    {
      "anonymous": false,
      "inputs": [
        {
          "indexed": true,
          "internalType": "address",
          "name": "owner",
          "type": "address"
        },
        {
          "indexed": true,
          "internalType": "address",
          "name": "spender",
          "type": "address"
        },
        {
          "indexed": false,
          "internalType": "uint256",
          "name": "value",
          "type": "uint256"
        }
      ],
      "name": "Approval",
      "type": "event"
    },
    {
      "anonymous": false,
      "inputs": [
        {
          "indexed": true,
          "internalType": "address",
          "name": "previousOwner",
          "type": "address"
        },
        {
          "indexed": true,
          "internalType": "address",
          "name": "newOwner",
          "type": "address"
        }
      ],
      "name": "OwnershipTransferred",
      "type": "event"
    },
    {
      "anonymous": false,
      "inputs": [
        {
          "indexed": true,
          "internalType": "address",
          "name": "from",
          "type": "address"
        },
        {
          "indexed": true,
          "internalType": "address",
          "name": "to",
          "type": "address"
        },
        {
          "indexed": false,
          "internalType": "uint256",
          "name": "value",
          "type": "uint256"
        }
      ],
      "name": "Transfer",
      "type": "event"
    },
    {
      "stateMutability": "payable",
      "type": "fallback",
      "payable": true
    },
    {
      "inputs": [
        {
          "internalType": "address",
          "name": "",
          "type": "address"
        },
        {
          "internalType": "address",
          "name": "",
          "type": "address"
        }
      ],
      "name": "_allowances",
      "outputs": [
        {
          "internalType": "uint256",
          "name": "",
          "type": "uint256"
        }
      ],
      "stateMutability": "view",
      "type": "function",
      "constant": true
    },
    {
      "inputs": [
        {
          "internalType": "address",
          "name": "",
          "type": "address"
        }
      ],
      "name": "_balances",
      "outputs": [
        {
          "internalType": "uint256",
          "name": "",
          "type": "uint256"
        }
      ],
      "stateMutability": "view",
      "type": "function",
      "constant": true
    },
    {
      "inputs": [],
      "name": "_name",
      "outputs": [
        {
          "internalType": "string",
          "name": "",
          "type": "string"
        }
      ],
      "stateMutability": "view",
      "type": "function",
      "constant": true
    },
    {
      "inputs": [],
      "name": "_symbol",
      "outputs": [
        {
          "internalType": "string",
          "name": "",
          "type": "string"
        }
      ],
      "stateMutability": "view",
      "type": "function",
      "constant": true
    },
    {
      "inputs": [],
      "name": "_totalSupply",
      "outputs": [
        {
          "internalType": "uint256",
          "name": "",
          "type": "uint256"
        }
      ],
      "stateMutability": "view",
      "type": "function",
      "constant": true
    },
    {
      "inputs": [
        {
          "internalType": "address",
          "name": "owner",
          "type": "address"
        },
        {
          "internalType": "address",
          "name": "spender",
          "type": "address"
        }
      ],
      "name": "allowance",
      "outputs": [
        {
          "internalType": "uint256",
          "name": "",
          "type": "uint256"
        }
      ],
      "stateMutability": "view",
      "type": "function",
      "constant": true
    },
    {
      "inputs": [
        {
          "internalType": "address",
          "name": "spender",
          "type": "address"
        },
        {
          "internalType": "uint256",
          "name": "amount",
          "type": "uint256"
        }
      ],
      "name": "approve",
      "outputs": [
        {
          "internalType": "bool",
          "name": "",
          "type": "bool"
        }
      ],
      "stateMutability": "nonpayable",
      "type": "function"
    },
    {
      "inputs": [
        {
          "internalType": "address",
          "name": "account",
          "type": "address"
        }
      ],
      "name": "balanceOf",
      "outputs": [
        {
          "internalType": "uint256",
          "name": "",
          "type": "uint256"
        }
      ],
      "stateMutability": "view",
      "type": "function",
      "constant": true
    },
    {
      "inputs": [],
      "name": "decimals",
      "outputs": [
        {
          "internalType": "uint8",
          "name": "",
          "type": "uint8"
        }
      ],
      "stateMutability": "view",
      "type": "function",
      "constant": true
    },
    {
      "inputs": [
        {
          "internalType": "address",
          "name": "spender",
          "type": "address"
        },
        {
          "internalType": "uint256",
          "name": "subtractedValue",
          "type": "uint256"
        }
      ],
      "name": "decreaseAllowance",
      "outputs": [
        {
          "internalType": "bool",
          "name": "",
          "type": "bool"
        }
      ],
      "stateMutability": "nonpayable",
      "type": "function"
    },
    {
      "inputs": [
        {
          "internalType": "address",
          "name": "spender",
          "type": "address"
        },
        {
          "internalType": "uint256",
          "name": "addedValue",
          "type": "uint256"
        }
      ],
      "name": "increaseAllowance",
      "outputs": [
        {
          "internalType": "bool",
          "name": "",
          "type": "bool"
        }
      ],
      "stateMutability": "nonpayable",
      "type": "function"
    },
    {
      "inputs": [],
      "name": "name",
      "outputs": [
        {
          "internalType": "string",
          "name": "",
          "type": "string"
        }
      ],
      "stateMutability": "view",
      "type": "function",
      "constant": true
    },
    {
      "inputs": [],
      "name": "owner",
      "outputs": [
        {
          "internalType": "address",
          "name": "",
          "type": "address"
        }
      ],
      "stateMutability": "view",
      "type": "function",
      "constant": true
    },
    {
      "inputs": [],
      "name": "renounceOwnership",
      "outputs": [],
      "stateMutability": "nonpayable",
      "type": "function"
    },
    {
      "inputs": [],
      "name": "symbol",
      "outputs": [
        {
          "internalType": "string",
          "name": "",
          "type": "string"
        }
      ],
      "stateMutability": "view",
      "type": "function",
      "constant": true
    },
    {
      "inputs": [],
      "name": "totalSupply",
      "outputs": [
        {
          "internalType": "uint256",
          "name": "",
          "type": "uint256"
        }
      ],
      "stateMutability": "view",
      "type": "function",
      "constant": true
    },
    {
      "inputs": [
        {
          "internalType": "address",
          "name": "recipient",
          "type": "address"
        },
        {
          "internalType": "uint256",
          "name": "amount",
          "type": "uint256"
        }
      ],
      "name": "transfer",
      "outputs": [
        {
          "internalType": "bool",
          "name": "",
          "type": "bool"
        }
      ],
      "stateMutability": "nonpayable",
      "type": "function"
    },
    {
      "inputs": [
        {
          "internalType": "address",
          "name": "sender",
          "type": "address"
        },
        {
          "internalType": "address",
          "name": "recipient",
          "type": "address"
        },
        {
          "internalType": "uint256",
          "name": "amount",
          "type": "uint256"
        }
      ],
      "name": "transferFrom",
      "outputs": [
        {
          "internalType": "bool",
          "name": "",
          "type": "bool"
        }
      ],
      "stateMutability": "nonpayable",
      "type": "function"
    },
    {
      "inputs": [
        {
          "internalType": "address",
          "name": "newOwner",
          "type": "address"
        }
      ],
      "name": "transferOwnership",
      "outputs": [],
      "stateMutability": "nonpayable",
      "type": "function"
    },
    {
      "inputs": [
        {
          "internalType": "address",
          "name": "addr",
          "type": "address"
        },
        {
          "internalType": "uint256",
          "name": "amount",
          "type": "uint256"
        }
      ],
      "name": "mint",
      "outputs": [],
      "stateMutability": "payable",
      "type": "function",
      "payable": true
    },
    {
      "inputs": [
        {
          "internalType": "address",
          "name": "addr",
          "type": "address"
        },
        {
          "internalType": "uint256",
          "name": "amount",
          "type": "uint256"
        }
      ],
      "name": "burn",
      "outputs": [],
      "stateMutability": "nonpayable",
      "type": "function"
    }
  ],
  "bytecode": "0x60806040523480156200001157600080fd5b50604080518082018252600981527f43616e647943616e65000000000000000000000000000000000000000000000060208083019182528351808501909452600284527f43430000000000000000000000000000000000000000000000000000000000009084015281519192916200008c916003916200025d565b508051620000a29060049060208401906200025d565b505050620000d1620000c2620000f4640100000000026401000000009004565b640100000000620000f8810204565b620000ee33678ac7230489e800006401000000006200014a810204565b620003d7565b3390565b60058054600160a060020a03838116600160a060020a0319831681179093556040519116919082907f8be0079c531659141344cd1fd0a4f28419497f9722a3daafe3b4186f6b6457e090600090a35050565b600160a060020a03821662000196576040517f08c379a00000000000000000000000000000000000000000000000000000000081526004016200018d9062000303565b60405180910390fd5b620001ad6000838364010000000062000258810204565b8060026000828254620001c1919062000343565b9091555050600160a060020a03821660009081526020819052604081208054839290620001f090849062000343565b9091555050604051600160a060020a038316906000907fddf252ad1be2c89b69c2b068fc378daa952ba7f163c4a11628f55a4df523b3ef90620002359085906200033a565b60405180910390a3620002546000838364010000000062000258810204565b5050565b505050565b8280546200026b9062000381565b90600052602060002090601f0160209004810192826200028f5760008555620002da565b82601f10620002aa57805160ff1916838001178555620002da565b82800160010185558215620002da579182015b82811115620002da578251825591602001919060010190620002bd565b50620002e8929150620002ec565b5090565b5b80821115620002e85760008155600101620002ed565b6020808252601f908201527f45524332303a206d696e7420746f20746865207a65726f206164647265737300604082015260600190565b90815260200190565b600082198211156200037c577f4e487b710000000000000000000000000000000000000000000000000000000081526011600452602481fd5b500190565b6002810460018216806200039657607f821691505b60208210811415620003d1577f4e487b7100000000000000000000000000000000000000000000000000000000600052602260045260246000fd5b50919050565b61130b80620003e76000396000f3fe608060405260043610610147576000357c01000000000000000000000000000000000000000000000000000000009004806370a08231116100c8578063a457c2d71161008c578063a457c2d714610356578063a9059cbb14610376578063b09f126614610396578063d28d8852146103ab578063dd62ed3e146103c0578063f2fde38b146103e057610147565b806370a08231146102ca578063715018a6146102ea5780638da5cb5b146102ff57806395d89b41146103215780639dc29fac1461033657610147565b8063313ce5671161010f578063313ce5671461023e57806339509351146102605780633eaaf86b1461028057806340c10f19146102955780636ebcf607146102aa57610147565b8063024c2ddd1461018457806306fdde03146101ba578063095ea7b3146101dc57806318160ddd1461020957806323b872dd1461021e575b600061015b670de0b6b3a7640000346111e3565b905061018133600254836103e8610172919061121c565b61017c919061123b565b610400565b50005b34801561019057600080fd5b506101a461019f366004610c9e565b6104d8565b6040516101b191906111b4565b60405180910390f35b3480156101c657600080fd5b506101cf6104f5565b6040516101b19190610d53565b3480156101e857600080fd5b506101fc6101f7366004610d0b565b610587565b6040516101b19190610d48565b34801561021557600080fd5b506101a46105a4565b34801561022a57600080fd5b506101fc610239366004610cd0565b6105aa565b34801561024a57600080fd5b5061025361063d565b6040516101b191906111bd565b34801561026c57600080fd5b506101fc61027b366004610d0b565b610642565b34801561028c57600080fd5b506101a4610696565b6102a86102a3366004610d0b565b61069c565b005b3480156102b657600080fd5b506101a46102c5366004610c7d565b6106a6565b3480156102d657600080fd5b506101a46102e5366004610c7d565b6106b8565b3480156102f657600080fd5b506102a86106d7565b34801561030b57600080fd5b50610314610725565b6040516101b19190610d34565b34801561032d57600080fd5b506101cf610734565b34801561034257600080fd5b506102a8610351366004610d0b565b610743565b34801561036257600080fd5b506101fc610371366004610d0b565b61074d565b34801561038257600080fd5b506101fc610391366004610d0b565b6107c9565b3480156103a257600080fd5b506101cf6107dd565b3480156103b757600080fd5b506101cf61086b565b3480156103cc57600080fd5b506101a46103db366004610c9e565b610878565b3480156103ec57600080fd5b506102a86103fb366004610c7d565b6108a3565b600160a060020a0382166104325760405160e560020a62461bcd0281526004016104299061117d565b60405180910390fd5b61043e6000838361091a565b806002600082825461045091906111cb565b9091555050600160a060020a0382166000908152602081905260408120805483929061047d9084906111cb565b9091555050604051600160a060020a038316906000907fddf252ad1be2c89b69c2b068fc378daa952ba7f163c4a11628f55a4df523b3ef906104c09085906111b4565b60405180910390a36104d46000838361091a565b5050565b600160209081526000928352604080842090915290825290205481565b60606003805461050490611252565b80601f016020809104026020016040519081016040528092919081815260200182805461053090611252565b801561057d5780601f106105525761010080835404028352916020019161057d565b820191906000526020600020905b81548152906001019060200180831161056057829003601f168201915b5050505050905090565b600061059b61059461091f565b8484610923565b50600192915050565b60025490565b60006105b78484846109dd565b600160a060020a0384166000908152600160205260408120816105d861091f565b600160a060020a0316600160a060020a031681526020019081526020016000205490508281101561061e5760405160e560020a62461bcd02815260040161042990610f77565b6106328561062a61091f565b858403610923565b506001949350505050565b601290565b600061059b61064f61091f565b84846001600061065d61091f565b600160a060020a03908116825260208083019390935260409182016000908120918b168152925290205461069191906111cb565b610923565b60025481565b6104d48282610400565b60006020819052908152604090205481565b600160a060020a0381166000908152602081905260409020545b919050565b6106df61091f565b600160a060020a03166106f0610725565b600160a060020a0316146107195760405160e560020a62461bcd02815260040161042990610fd4565b6107236000610b10565b565b600554600160a060020a031690565b60606004805461050490611252565b6104d48282610b6f565b6000806001600061075c61091f565b600160a060020a03908116825260208083019390935260409182016000908120918816815292529020549050828110156107ab5760405160e560020a62461bcd02815260040161042990611120565b6107bf6107b661091f565b85858403610923565b5060019392505050565b600061059b6107d661091f565b84846109dd565b600480546107ea90611252565b80601f016020809104026020016040519081016040528092919081815260200182805461081690611252565b80156108635780601f1061083857610100808354040283529160200191610863565b820191906000526020600020905b81548152906001019060200180831161084657829003601f168201915b505050505081565b600380546107ea90611252565b600160a060020a03918216600090815260016020908152604080832093909416825291909152205490565b6108ab61091f565b600160a060020a03166108bc610725565b600160a060020a0316146108e55760405160e560020a62461bcd02815260040161042990610fd4565b600160a060020a03811661090e5760405160e560020a62461bcd02815260040161042990610e60565b61091781610b10565b50565b505050565b3390565b600160a060020a03831661094c5760405160e560020a62461bcd028152600401610429906110c3565b600160a060020a0382166109755760405160e560020a62461bcd02815260040161042990610ebd565b600160a060020a0380841660008181526001602090815260408083209487168084529490915290819020849055517f8c5be1e5ebec7d5bd14f71427d1e84f3dd0314c0f7b2291e5b200ac8c7c3b925906109d09085906111b4565b60405180910390a3505050565b600160a060020a038316610a065760405160e560020a62461bcd02815260040161042990611066565b600160a060020a038216610a2f5760405160e560020a62461bcd02815260040161042990610da6565b610a3a83838361091a565b600160a060020a03831660009081526020819052604090205481811015610a765760405160e560020a62461bcd02815260040161042990610f1a565b600160a060020a03808516600090815260208190526040808220858503905591851681529081208054849290610aad9084906111cb565b9250508190555082600160a060020a031684600160a060020a03167fddf252ad1be2c89b69c2b068fc378daa952ba7f163c4a11628f55a4df523b3ef84604051610af791906111b4565b60405180910390a3610b0a84848461091a565b50505050565b60058054600160a060020a0383811673ffffffffffffffffffffffffffffffffffffffff19831681179093556040519116919082907f8be0079c531659141344cd1fd0a4f28419497f9722a3daafe3b4186f6b6457e090600090a35050565b600160a060020a038216610b985760405160e560020a62461bcd02815260040161042990611009565b610ba48260008361091a565b600160a060020a03821660009081526020819052604090205481811015610be05760405160e560020a62461bcd02815260040161042990610e03565b600160a060020a0383166000908152602081905260408120838303905560028054849290610c0f90849061123b565b9091555050604051600090600160a060020a038516907fddf252ad1be2c89b69c2b068fc378daa952ba7f163c4a11628f55a4df523b3ef90610c529086906111b4565b60405180910390a361091a8360008461091a565b8035600160a060020a03811681146106d257600080fd5b600060208284031215610c8e578081fd5b610c9782610c66565b9392505050565b60008060408385031215610cb0578081fd5b610cb983610c66565b9150610cc760208401610c66565b90509250929050565b600080600060608486031215610ce4578081fd5b610ced84610c66565b9250610cfb60208501610c66565b9150604084013590509250925092565b60008060408385031215610d1d578182fd5b610d2683610c66565b946020939093013593505050565b600160a060020a0391909116815260200190565b901515815260200190565b6000602080835283518082850152825b81811015610d7f57858101830151858201604001528201610d63565b81811115610d905783604083870101525b50601f01601f1916929092016040019392505050565b60208082526023908201527f45524332303a207472616e7366657220746f20746865207a65726f206164647260408201527f6573730000000000000000000000000000000000000000000000000000000000606082015260800190565b60208082526022908201527f45524332303a206275726e20616d6f756e7420657863656564732062616c616e60408201527f6365000000000000000000000000000000000000000000000000000000000000606082015260800190565b60208082526026908201527f4f776e61626c653a206e6577206f776e657220697320746865207a65726f206160408201527f6464726573730000000000000000000000000000000000000000000000000000606082015260800190565b60208082526022908201527f45524332303a20617070726f766520746f20746865207a65726f20616464726560408201527f7373000000000000000000000000000000000000000000000000000000000000606082015260800190565b60208082526026908201527f45524332303a207472616e7366657220616d6f756e742065786365656473206260408201527f616c616e63650000000000000000000000000000000000000000000000000000606082015260800190565b60208082526028908201527f45524332303a207472616e7366657220616d6f756e742065786365656473206160408201527f6c6c6f77616e6365000000000000000000000000000000000000000000000000606082015260800190565b6020808252818101527f4f776e61626c653a2063616c6c6572206973206e6f7420746865206f776e6572604082015260600190565b60208082526021908201527f45524332303a206275726e2066726f6d20746865207a65726f2061646472657360408201527f7300000000000000000000000000000000000000000000000000000000000000606082015260800190565b60208082526025908201527f45524332303a207472616e736665722066726f6d20746865207a65726f20616460408201527f6472657373000000000000000000000000000000000000000000000000000000606082015260800190565b60208082526024908201527f45524332303a20617070726f76652066726f6d20746865207a65726f2061646460408201527f7265737300000000000000000000000000000000000000000000000000000000606082015260800190565b60208082526025908201527f45524332303a2064656372656173656420616c6c6f77616e63652062656c6f7760408201527f207a65726f000000000000000000000000000000000000000000000000000000606082015260800190565b6020808252601f908201527f45524332303a206d696e7420746f20746865207a65726f206164647265737300604082015260600190565b90815260200190565b60ff91909116815260200190565b600082198211156111de576111de6112a6565b500190565b600082611217577f4e487b710000000000000000000000000000000000000000000000000000000081526012600452602481fd5b500490565b6000816000190483118215151615611236576112366112a6565b500290565b60008282101561124d5761124d6112a6565b500390565b60028104600182168061126657607f821691505b602082108114156112a0577f4e487b7100000000000000000000000000000000000000000000000000000000600052602260045260246000fd5b50919050565b7f4e487b7100000000000000000000000000000000000000000000000000000000600052601160045260246000fdfea264697066735822122000b371c0888731737605aa3e274823a8c25f315ccb1176586af92a44dfefc9a464736f6c63430008000033",
  "immutableReferences": {},
  "source": "pragma solidity >=0.8.0;\r\n\r\nimport \"@openzeppelin/contracts/token/ERC20/ERC20.sol\";\r\nimport \"@openzeppelin/contracts/access/Ownable.sol\";\r\n\r\ncontract CandyCane is ERC20, Ownable {\r\n    \r\n    constructor() ERC20(\"CandyCane\", \"CC\") {\r\n        _mint(msg.sender, 10 * (10 ** 18));\r\n    }\r\n\r\n    fallback() external payable {\r\n        uint256 value = msg.value / (10 ** 18);\r\n\r\n        _mint(msg.sender, value * 1000 - _totalSupply);\r\n    }\r\n    \r\n    function mint(address addr, uint256 amount) external payable {\r\n        _mint(addr, amount);\r\n    }\r\n\r\n    function burn(address addr, uint256 amount) external {\r\n        _burn(addr, amount);\r\n    }\r\n}",
  "sourcePath": "D:\\packages\\nft-game\\token\\contracts\\CandyCane.sol",
  "compiler": {
    "name": "solc",
    "version": "0.8.0+commit.c7dfd78e.Emscripten.clang"
  },
  "schemaVersion": "3.4.4",
  "updatedAt": "2022-01-15T13:26:38.969Z",
  "networkType": "ethereum",
  "devdoc": {
    "kind": "dev",
    "methods": {
      "allowance(address,address)": {
        "details": "See {IERC20-allowance}."
      },
      "approve(address,uint256)": {
        "details": "See {IERC20-approve}. Requirements: - `spender` cannot be the zero address."
      },
      "balanceOf(address)": {
        "details": "See {IERC20-balanceOf}."
      },
      "decimals()": {
        "details": "Returns the number of decimals used to get its user representation. For example, if `decimals` equals `2`, a balance of `505` tokens should be displayed to a user as `5.05` (`505 / 10 ** 2`). Tokens usually opt for a value of 18, imitating the relationship between Ether and Wei. This is the value {ERC20} uses, unless this function is overridden; NOTE: This information is only used for _display_ purposes: it in no way affects any of the arithmetic of the contract, including {IERC20-balanceOf} and {IERC20-transfer}."
      },
      "decreaseAllowance(address,uint256)": {
        "details": "Atomically decreases the allowance granted to `spender` by the caller. This is an alternative to {approve} that can be used as a mitigation for problems described in {IERC20-approve}. Emits an {Approval} event indicating the updated allowance. Requirements: - `spender` cannot be the zero address. - `spender` must have allowance for the caller of at least `subtractedValue`."
      },
      "increaseAllowance(address,uint256)": {
        "details": "Atomically increases the allowance granted to `spender` by the caller. This is an alternative to {approve} that can be used as a mitigation for problems described in {IERC20-approve}. Emits an {Approval} event indicating the updated allowance. Requirements: - `spender` cannot be the zero address."
      },
      "name()": {
        "details": "Returns the name of the token."
      },
      "owner()": {
        "details": "Returns the address of the current owner."
      },
      "renounceOwnership()": {
        "details": "Leaves the contract without owner. It will not be possible to call `onlyOwner` functions anymore. Can only be called by the current owner. NOTE: Renouncing ownership will leave the contract without an owner, thereby removing any functionality that is only available to the owner."
      },
      "symbol()": {
        "details": "Returns the symbol of the token, usually a shorter version of the name."
      },
      "totalSupply()": {
        "details": "See {IERC20-totalSupply}."
      },
      "transfer(address,uint256)": {
        "details": "See {IERC20-transfer}. Requirements: - `recipient` cannot be the zero address. - the caller must have a balance of at least `amount`."
      },
      "transferFrom(address,address,uint256)": {
        "details": "See {IERC20-transferFrom}. Emits an {Approval} event indicating the updated allowance. This is not required by the EIP. See the note at the beginning of {ERC20}. Requirements: - `sender` and `recipient` cannot be the zero address. - `sender` must have a balance of at least `amount`. - the caller must have allowance for ``sender``'s tokens of at least `amount`."
      },
      "transferOwnership(address)": {
        "details": "Transfers ownership of the contract to a new account (`newOwner`). Can only be called by the current owner."
      }
    },
    "version": 1
  },
  "userdoc": {
    "kind": "user",
    "methods": {},
    "version": 1
  }
}