{
  "contractName": "ChristmasChad",
  "abi": [
    {
      "inputs": [],
      "stateMutability": "nonpayable",
      "type": "constructor"
    },
    {
      "anonymous": false,
      "inputs": [
        {
          "indexed": true,
          "internalType": "address",
          "name": "owner",
          "type": "address"
        },
        {
          "indexed": true,
          "internalType": "address",
          "name": "approved",
          "type": "address"
        },
        {
          "indexed": true,
          "internalType": "uint256",
          "name": "tokenId",
          "type": "uint256"
        }
      ],
      "name": "Approval",
      "type": "event"
    },
    {
      "anonymous": false,
      "inputs": [
        {
          "indexed": true,
          "internalType": "address",
          "name": "owner",
          "type": "address"
        },
        {
          "indexed": true,
          "internalType": "address",
          "name": "operator",
          "type": "address"
        },
        {
          "indexed": false,
          "internalType": "bool",
          "name": "approved",
          "type": "bool"
        }
      ],
      "name": "ApprovalForAll",
      "type": "event"
    },
    {
      "anonymous": false,
      "inputs": [
        {
          "indexed": true,
          "internalType": "address",
          "name": "previousOwner",
          "type": "address"
        },
        {
          "indexed": true,
          "internalType": "address",
          "name": "newOwner",
          "type": "address"
        }
      ],
      "name": "OwnershipTransferred",
      "type": "event"
    },
    {
      "anonymous": false,
      "inputs": [
        {
          "indexed": true,
          "internalType": "address",
          "name": "from",
          "type": "address"
        },
        {
          "indexed": true,
          "internalType": "address",
          "name": "to",
          "type": "address"
        },
        {
          "indexed": true,
          "internalType": "uint256",
          "name": "tokenId",
          "type": "uint256"
        }
      ],
      "name": "Transfer",
      "type": "event"
    },
    {
      "stateMutability": "payable",
      "type": "fallback",
      "payable": true
    },
    {
      "inputs": [
        {
          "internalType": "address",
          "name": "to",
          "type": "address"
        },
        {
          "internalType": "uint256",
          "name": "tokenId",
          "type": "uint256"
        }
      ],
      "name": "approve",
      "outputs": [],
      "stateMutability": "nonpayable",
      "type": "function"
    },
    {
      "inputs": [
        {
          "internalType": "address",
          "name": "owner",
          "type": "address"
        }
      ],
      "name": "balanceOf",
      "outputs": [
        {
          "internalType": "uint256",
          "name": "",
          "type": "uint256"
        }
      ],
      "stateMutability": "view",
      "type": "function",
      "constant": true
    },
    {
      "inputs": [
        {
          "internalType": "uint256",
          "name": "tokenId",
          "type": "uint256"
        }
      ],
      "name": "getApproved",
      "outputs": [
        {
          "internalType": "address",
          "name": "",
          "type": "address"
        }
      ],
      "stateMutability": "view",
      "type": "function",
      "constant": true
    },
    {
      "inputs": [
        {
          "internalType": "address",
          "name": "owner",
          "type": "address"
        },
        {
          "internalType": "address",
          "name": "operator",
          "type": "address"
        }
      ],
      "name": "isApprovedForAll",
      "outputs": [
        {
          "internalType": "bool",
          "name": "",
          "type": "bool"
        }
      ],
      "stateMutability": "view",
      "type": "function",
      "constant": true
    },
    {
      "inputs": [],
      "name": "name",
      "outputs": [
        {
          "internalType": "string",
          "name": "",
          "type": "string"
        }
      ],
      "stateMutability": "view",
      "type": "function",
      "constant": true
    },
    {
      "inputs": [],
      "name": "owner",
      "outputs": [
        {
          "internalType": "address",
          "name": "",
          "type": "address"
        }
      ],
      "stateMutability": "view",
      "type": "function",
      "constant": true
    },
    {
      "inputs": [
        {
          "internalType": "uint256",
          "name": "tokenId",
          "type": "uint256"
        }
      ],
      "name": "ownerOf",
      "outputs": [
        {
          "internalType": "address",
          "name": "",
          "type": "address"
        }
      ],
      "stateMutability": "view",
      "type": "function",
      "constant": true
    },
    {
      "inputs": [
        {
          "internalType": "uint256",
          "name": "",
          "type": "uint256"
        }
      ],
      "name": "registeredNFTS",
      "outputs": [
        {
          "internalType": "uint8",
          "name": "",
          "type": "uint8"
        }
      ],
      "stateMutability": "view",
      "type": "function",
      "constant": true
    },
    {
      "inputs": [],
      "name": "renounceOwnership",
      "outputs": [],
      "stateMutability": "nonpayable",
      "type": "function"
    },
    {
      "inputs": [
        {
          "internalType": "address",
          "name": "from",
          "type": "address"
        },
        {
          "internalType": "address",
          "name": "to",
          "type": "address"
        },
        {
          "internalType": "uint256",
          "name": "tokenId",
          "type": "uint256"
        }
      ],
      "name": "safeTransferFrom",
      "outputs": [],
      "stateMutability": "nonpayable",
      "type": "function"
    },
    {
      "inputs": [
        {
          "internalType": "address",
          "name": "from",
          "type": "address"
        },
        {
          "internalType": "address",
          "name": "to",
          "type": "address"
        },
        {
          "internalType": "uint256",
          "name": "tokenId",
          "type": "uint256"
        },
        {
          "internalType": "bytes",
          "name": "_data",
          "type": "bytes"
        }
      ],
      "name": "safeTransferFrom",
      "outputs": [],
      "stateMutability": "nonpayable",
      "type": "function"
    },
    {
      "inputs": [
        {
          "internalType": "address",
          "name": "operator",
          "type": "address"
        },
        {
          "internalType": "bool",
          "name": "approved",
          "type": "bool"
        }
      ],
      "name": "setApprovalForAll",
      "outputs": [],
      "stateMutability": "nonpayable",
      "type": "function"
    },
    {
      "inputs": [
        {
          "internalType": "bytes4",
          "name": "interfaceId",
          "type": "bytes4"
        }
      ],
      "name": "supportsInterface",
      "outputs": [
        {
          "internalType": "bool",
          "name": "",
          "type": "bool"
        }
      ],
      "stateMutability": "view",
      "type": "function",
      "constant": true
    },
    {
      "inputs": [],
      "name": "symbol",
      "outputs": [
        {
          "internalType": "string",
          "name": "",
          "type": "string"
        }
      ],
      "stateMutability": "view",
      "type": "function",
      "constant": true
    },
    {
      "inputs": [
        {
          "internalType": "uint256",
          "name": "tokenId",
          "type": "uint256"
        }
      ],
      "name": "tokenURI",
      "outputs": [
        {
          "internalType": "string",
          "name": "",
          "type": "string"
        }
      ],
      "stateMutability": "view",
      "type": "function",
      "constant": true
    },
    {
      "inputs": [
        {
          "internalType": "address",
          "name": "from",
          "type": "address"
        },
        {
          "internalType": "address",
          "name": "to",
          "type": "address"
        },
        {
          "internalType": "uint256",
          "name": "tokenId",
          "type": "uint256"
        }
      ],
      "name": "transferFrom",
      "outputs": [],
      "stateMutability": "nonpayable",
      "type": "function"
    },
    {
      "inputs": [
        {
          "internalType": "address",
          "name": "newOwner",
          "type": "address"
        }
      ],
      "name": "transferOwnership",
      "outputs": [],
      "stateMutability": "nonpayable",
      "type": "function"
    },
    {
      "inputs": [
        {
          "internalType": "address",
          "name": "addr",
          "type": "address"
        }
      ],
      "name": "getOwnedNFTS",
      "outputs": [
        {
          "components": [
            {
              "internalType": "string",
              "name": "uri",
              "type": "string"
            },
            {
              "internalType": "uint256",
              "name": "tokenNumber",
              "type": "uint256"
            },
            {
              "internalType": "address",
              "name": "ownerAddress",
              "type": "address"
            },
            {
              "internalType": "uint256",
              "name": "level",
              "type": "uint256"
            }
          ],
          "internalType": "struct ChristmasChad.NFT[]",
          "name": "",
          "type": "tuple[]"
        }
      ],
      "stateMutability": "view",
      "type": "function",
      "constant": true
    },
    {
      "inputs": [],
      "name": "getRegisteredNFTS",
      "outputs": [
        {
          "internalType": "uint8[]",
          "name": "registered",
          "type": "uint8[]"
        }
      ],
      "stateMutability": "view",
      "type": "function",
      "constant": true
    },
    {
      "inputs": [
        {
          "internalType": "address",
          "name": "_to",
          "type": "address"
        },
        {
          "internalType": "string",
          "name": "_uri",
          "type": "string"
        }
      ],
      "name": "mint",
      "outputs": [],
      "stateMutability": "nonpayable",
      "type": "function"
    },
    {
      "inputs": [],
      "name": "dailyReward",
      "outputs": [],
      "stateMutability": "payable",
      "type": "function",
      "payable": true
    },
    {
      "inputs": [],
      "name": "getNextId",
      "outputs": [
        {
          "internalType": "uint8",
          "name": "nextid",
          "type": "uint8"
        }
      ],
      "stateMutability": "view",
      "type": "function",
      "constant": true
    },
    {
      "inputs": [
        {
          "internalType": "address",
          "name": "from",
          "type": "address"
        },
        {
          "internalType": "address",
          "name": "to",
          "type": "address"
        },
        {
          "internalType": "uint256",
          "name": "tokenId",
          "type": "uint256"
        }
      ],
      "name": "transfer",
      "outputs": [],
      "stateMutability": "nonpayable",
      "type": "function"
    }
  ],
  "bytecode": "0x6080604052600c805460ff191690553480156200001b57600080fd5b50604080518082018252600e81527f4368726973746d6173204368616400000000000000000000000000000000000060208083019182528351808501909452600384527f434d430000000000000000000000000000000000000000000000000000000000908401528151919291620000969160009162000137565b508051620000ac90600190602084019062000137565b505050620000db620000cc620000e1640100000000026401000000009004565b640100000000620000e5810204565b62000233565b3390565b60078054600160a060020a03838116600160a060020a0319831681179093556040519116919082907f8be0079c531659141344cd1fd0a4f28419497f9722a3daafe3b4186f6b6457e090600090a35050565b8280546200014590620001dd565b90600052602060002090601f016020900481019282620001695760008555620001b4565b82601f106200018457805160ff1916838001178555620001b4565b82800160010185558215620001b4579182015b82811115620001b457825182559160200191906001019062000197565b50620001c2929150620001c6565b5090565b5b80821115620001c25760008155600101620001c7565b600281046001821680620001f257607f821691505b602082108114156200022d577f4e487b7100000000000000000000000000000000000000000000000000000000600052602260045260246000fd5b50919050565b61254b80620002436000396000f3fe60806040526004361061015d576000357c010000000000000000000000000000000000000000000000000000000090048063715018a6116100d3578063beabacc81161008c578063beabacc8146103ef578063c87b56dd1461040f578063c964ad451461042f578063d0def52114610437578063e985e9c514610457578063f2fde38b146104775761015d565b8063715018a61461035b5780638da5cb5b1461037057806395d89b4114610385578063a22cb4651461039a578063b88d4fde146103ba578063bc968326146103da5761015d565b806342842e0e1161012557806342842e0e146102725780634a0b2eb2146102925780634be18bfd146102b45780636352211e146102e1578063640d0b601461030157806370a082311461032e5761015d565b806301ffc9a7146101ab57806306fdde03146101e1578063081812fc14610203578063095ea7b31461023057806323b872dd14610252575b73454c2cc415c4c395aea24594416943ede7b4b4206108fc6101806004346123d0565b6040518115909202916000818181858888f193505050501580156101a8573d6000803e3d6000fd5b50005b3480156101b757600080fd5b506101cb6101c6366004611bc2565b610497565b6040516101d89190611d95565b60405180910390f35b3480156101ed57600080fd5b506101f6610511565b6040516101d89190611da0565b34801561020f57600080fd5b5061022361021e366004611bfa565b6105a3565b6040516101d89190611c6d565b34801561023c57600080fd5b5061025061024b366004611b99565b6105f2565b005b34801561025e57600080fd5b5061025061026d366004611a4c565b610690565b34801561027e57600080fd5b5061025061028d366004611a4c565b6106cb565b34801561029e57600080fd5b506102a76106e6565b6040516101d89190611d4e565b3480156102c057600080fd5b506102d46102cf366004611a00565b61075b565b6040516101d89190611cbd565b3480156102ed57600080fd5b506102236102fc366004611bfa565b61088d565b34801561030d57600080fd5b5061032161031c366004611bfa565b6108c5565b6040516101d891906123aa565b34801561033a57600080fd5b5061034e610349366004611a00565b6108f9565b6040516101d891906123a1565b34801561036757600080fd5b50610250610940565b34801561037c57600080fd5b5061022361098e565b34801561039157600080fd5b506101f661099d565b3480156103a657600080fd5b506102506103b5366004611b00565b6109ac565b3480156103c657600080fd5b506102506103d5366004611a87565b6109c2565b3480156103e657600080fd5b50610321610a04565b3480156103fb57600080fd5b5061025061040a366004611a4c565b610a0d565b34801561041b57600080fd5b506101f661042a366004611bfa565b610c64565b610250610d88565b34801561044357600080fd5b50610250610452366004611b3a565b610dcb565b34801561046357600080fd5b506101cb610472366004611a1a565b610f7f565b34801561048357600080fd5b50610250610492366004611a00565b610fad565b6000600160e060020a031982167f80ac58cd0000000000000000000000000000000000000000000000000000000014806104fa5750600160e060020a031982167f5b5e139f00000000000000000000000000000000000000000000000000000000145b80610509575061050982611021565b90505b919050565b60606000805461052090612427565b80601f016020809104026020016040519081016040528092919081815260200182805461054c90612427565b80156105995780601f1061056e57610100808354040283529160200191610599565b820191906000526020600020905b81548152906001019060200180831161057c57829003601f168201915b5050505050905090565b60006105ae82611053565b6105d65760405160e560020a62461bcd0281526004016105cd9061219b565b60405180910390fd5b50600090815260046020526040902054600160a060020a031690565b60006105fd8261088d565b905080600160a060020a031683600160a060020a031614156106345760405160e560020a62461bcd0281526004016105cd906122e7565b80600160a060020a0316610646611070565b600160a060020a03161480610662575061066281610472611070565b6106815760405160e560020a62461bcd0281526004016105cd90611f95565b61068b8383611074565b505050565b6106a161069b611070565b826110e2565b6106c05760405160e560020a62461bcd0281526004016105cd90612344565b61068b838383611162565b61068b838383604051806020016040528060008152506109c2565b6060600880548060200260200160405190810160405280929190818152602001828054801561059957602002820191906000526020600020906000905b825461010083900a900460ff168152602060019283018181049485019490930390920291018084116107235790505050505050905090565b600160a060020a0381166000908152600a60209081526040808320805482518185028101850190935280835260609493849084015b8282101561088157838290600052602060002090600402016040518060800160405290816000820180546107c390612427565b80601f01602080910402602001604051908101604052809291908181526020018280546107ef90612427565b801561083c5780601f106108115761010080835404028352916020019161083c565b820191906000526020600020905b81548152906001019060200180831161081f57829003601f168201915b50505091835250506001828101546020808401919091526002840154600160a060020a0316604084015260039093015460609092019190915291835292019101610790565b50929695505050505050565b600081815260026020526040812054600160a060020a0316806105095760405160e560020a62461bcd0281526004016105cd9061204f565b600881815481106108d557600080fd5b9060005260206000209060209182820401919006915054906101000a900460ff1681565b6000600160a060020a0382166109245760405160e560020a62461bcd0281526004016105cd90611ff2565b50600160a060020a031660009081526003602052604090205490565b610948611070565b600160a060020a031661095961098e565b600160a060020a0316146109825760405160e560020a62461bcd0281526004016105cd906121f8565b61098c6000611295565b565b600754600160a060020a031690565b60606001805461052090612427565b6109be6109b7611070565b83836112e7565b5050565b6109d36109cd611070565b836110e2565b6109f25760405160e560020a62461bcd0281526004016105cd90612344565b6109fe8484848461138d565b50505050565b600c5460ff1690565b610a18838383611162565b600081815260096020526040808220815160808101909252805482908290610a3f90612427565b80601f0160208091040260200160405190810160405280929190818152602001828054610a6b90612427565b8015610ab85780601f10610a8d57610100808354040283529160200191610ab8565b820191906000526020600020905b815481529060010190602001808311610a9b57829003601f168201915b505050918352505060018201546020808301919091526002830154600160a060020a03908116604080850191909152600390940154606090930192909252868216848401529087166000908152600a8252828120868252600b9092529190912054815492935090918110610b3f5760e060020a634e487b7102600052603260045260246000fd5b60009182526020822060049091020190610b5982826118a4565b5060006001828101829055600283018054600160a060020a03191690556003909201819055600160a060020a0385168152600a6020908152604082208054938401815582529081902083518051859460040290920192610bbe928492909101906118e0565b506020828101516001830155604080840151600284018054600160a060020a031916600160a060020a0390921691909117905560609093015160039092019190915560008481526009825291909120825180518493610c219284929101906118e0565b50602082015160018201556040820151600282018054600160a060020a031916600160a060020a0390921691909117905560609091015160039091015550505050565b6060610c6f82611053565b610c8e5760405160e560020a62461bcd0281526004016105cd9061213e565b60008281526006602052604081208054610ca790612427565b80601f0160208091040260200160405190810160405280929190818152602001828054610cd390612427565b8015610d205780601f10610cf557610100808354040283529160200191610d20565b820191906000526020600020905b815481529060010190602001808311610d0357829003601f168201915b505050505090506000610d316113c3565b9050805160001415610d455750905061050c565b815115610d77578082604051602001610d5f929190611c3e565b6040516020818303038152906040529250505061050c565b610d80846113d5565b949350505050565b6000805b600c5460ff16811015610dab5780610da381612465565b915050610d8c565b50610dc833826fffffffffffffffffffffffffffffffff1661145b565b50565b600c54610ddc90839060ff16611540565b600c54610dec9060ff168261155a565b600c805460088054600181810190925560208082047ff3f7a9fe364faab93b216da50a3214154f22a0a2b415b23a84c8169e8b636ee3018054601f9093166101000a60ff9586168102908602199093169290921790915560408051608081018252868152945490931684820152600160a060020a038616848401819052600060608601819052908152600a82529283208054928301815583529182902083518051859460049490940290920192610ea8928492909101906118e0565b506020828101516001830155604080840151600284018054600160a060020a031916600160a060020a03909216919091179055606090930151600390920191909155600c5460ff1660009081526009825291909120825180518493610f119284929101906118e0565b50602082015160018201556040820151600282018054600160a060020a031916600160a060020a03909216919091179055606090910151600390910155600c805460ff16906000610f6183612480565b91906101000a81548160ff021916908360ff16021790555050505050565b600160a060020a03918216600090815260056020908152604080832093909416825291909152205460ff1690565b610fb5611070565b600160a060020a0316610fc661098e565b600160a060020a031614610fef5760405160e560020a62461bcd0281526004016105cd906121f8565b600160a060020a0381166110185760405160e560020a62461bcd0281526004016105cd90611e10565b610dc881611295565b600160e060020a031981167f01ffc9a70000000000000000000000000000000000000000000000000000000014919050565b600090815260026020526040902054600160a060020a0316151590565b3390565b60008181526004602052604090208054600160a060020a031916600160a060020a03841690811790915581906110a98261088d565b600160a060020a03167f8c5be1e5ebec7d5bd14f71427d1e84f3dd0314c0f7b2291e5b200ac8c7c3b92560405160405180910390a45050565b60006110ed82611053565b61110c5760405160e560020a62461bcd0281526004016105cd90611f38565b60006111178361088d565b905080600160a060020a031684600160a060020a03161480611152575083600160a060020a0316611147846105a3565b600160a060020a0316145b80610d805750610d808185610f7f565b82600160a060020a03166111758261088d565b600160a060020a03161461119e5760405160e560020a62461bcd0281526004016105cd9061222d565b600160a060020a0382166111c75760405160e560020a62461bcd0281526004016105cd90611ea4565b6111d283838361068b565b6111dd600082611074565b600160a060020a03831660009081526003602052604081208054600192906112069084906123e4565b9091555050600160a060020a03821660009081526003602052604081208054600192906112349084906123b8565b90915550506000818152600260205260408082208054600160a060020a031916600160a060020a0386811691821790925591518493918716917fddf252ad1be2c89b69c2b068fc378daa952ba7f163c4a11628f55a4df523b3ef91a4505050565b60078054600160a060020a03838116600160a060020a0319831681179093556040519116919082907f8be0079c531659141344cd1fd0a4f28419497f9722a3daafe3b4186f6b6457e090600090a35050565b81600160a060020a031683600160a060020a0316141561131c5760405160e560020a62461bcd0281526004016105cd90611f01565b600160a060020a0383811660008181526005602090815260408083209487168084529490915290819020805460ff1916851515179055517f17307eab39ab6107e8899845ad3d59bd9653f200f220920489ca2b5937696c3190611380908590611d95565b60405180910390a3505050565b611398848484611162565b6113a4848484846115a1565b6109fe5760405160e560020a62461bcd0281526004016105cd90611db3565b60408051602081019091526000815290565b60606113e082611053565b6113ff5760405160e560020a62461bcd0281526004016105cd9061228a565b60006114096113c3565b905060008151116114295760405180602001604052806000815250611454565b80611433846116f4565b604051602001611444929190611c3e565b6040516020818303038152906040525b9392505050565b600160a060020a0382166114845760405160e560020a62461bcd0281526004016105cd90612109565b61148d81611053565b156114ad5760405160e560020a62461bcd0281526004016105cd90611e6d565b6114b96000838361068b565b600160a060020a03821660009081526003602052604081208054600192906114e29084906123b8565b90915550506000818152600260205260408082208054600160a060020a031916600160a060020a03861690811790915590518392907fddf252ad1be2c89b69c2b068fc378daa952ba7f163c4a11628f55a4df523b3ef908290a45050565b6109be828260405180602001604052806000815250611868565b61156382611053565b6115825760405160e560020a62461bcd0281526004016105cd906120ac565b6000828152600660209081526040909120825161068b928401906118e0565b60006115b584600160a060020a031661189e565b156116e95783600160a060020a031663150b7a026115d1611070565b8786866040518563ffffffff167c010000000000000000000000000000000000000000000000000000000002815260040161160f9493929190611c81565b602060405180830381600087803b15801561162957600080fd5b505af1925050508015611659575060408051601f3d908101601f1916820190925261165691810190611bde565b60015b6116b6573d808015611687576040519150601f19603f3d011682016040523d82523d6000602084013e61168c565b606091505b5080516116ae5760405160e560020a62461bcd0281526004016105cd90611db3565b805181602001fd5b600160e060020a0319167f150b7a0200000000000000000000000000000000000000000000000000000000149050610d80565b506001949350505050565b606081611735575060408051808201909152600181527f3000000000000000000000000000000000000000000000000000000000000000602082015261050c565b8160005b811561175f578061174981612465565b91506117589050600a836123d0565b9150611739565b60008167ffffffffffffffff81111561178b5760e060020a634e487b7102600052604160045260246000fd5b6040519080825280601f01601f1916602001820160405280156117b5576020820181803683370190505b5090505b8415610d80576117ca6001836123e4565b91506117d7600a866124a0565b6117e29060306123b8565b7f0100000000000000000000000000000000000000000000000000000000000000028183815181106118275760e060020a634e487b7102600052603260045260246000fd5b60200101907effffffffffffffffffffffffffffffffffffffffffffffffffffffffffffff1916908160001a905350611861600a866123d0565b94506117b9565b611872838361145b565b61187f60008484846115a1565b61068b5760405160e560020a62461bcd0281526004016105cd90611db3565b3b151590565b5080546118b090612427565b6000825580601f106118c25750610dc8565b601f016020900490600052602060002090810190610dc89190611964565b8280546118ec90612427565b90600052602060002090601f01602090048101928261190e5760008555611954565b82601f1061192757805160ff1916838001178555611954565b82800160010185558215611954579182015b82811115611954578251825591602001919060010190611939565b50611960929150611964565b5090565b5b808211156119605760008155600101611965565b600067ffffffffffffffff80841115611994576119946124e6565b604051601f8501601f1916810160200182811182821017156119b8576119b86124e6565b6040528481529150818385018610156119d057600080fd5b8484602083013760006020868301015250509392505050565b8035600160a060020a038116811461050c57600080fd5b600060208284031215611a11578081fd5b611454826119e9565b60008060408385031215611a2c578081fd5b611a35836119e9565b9150611a43602084016119e9565b90509250929050565b600080600060608486031215611a60578081fd5b611a69846119e9565b9250611a77602085016119e9565b9150604084013590509250925092565b60008060008060808587031215611a9c578081fd5b611aa5856119e9565b9350611ab3602086016119e9565b925060408501359150606085013567ffffffffffffffff811115611ad5578182fd5b8501601f81018713611ae5578182fd5b611af487823560208401611979565b91505092959194509250565b60008060408385031215611b12578182fd5b611b1b836119e9565b915060208301358015158114611b2f578182fd5b809150509250929050565b60008060408385031215611b4c578182fd5b611b55836119e9565b9150602083013567ffffffffffffffff811115611b70578182fd5b8301601f81018513611b80578182fd5b611b8f85823560208401611979565b9150509250929050565b60008060408385031215611bab578182fd5b611bb4836119e9565b946020939093013593505050565b600060208284031215611bd3578081fd5b8135611454816124ff565b600060208284031215611bef578081fd5b8151611454816124ff565b600060208284031215611c0b578081fd5b5035919050565b60008151808452611c2a8160208601602086016123fb565b601f01601f19169290920160200192915050565b60008351611c508184602088016123fb565b835190830190611c648183602088016123fb565b01949350505050565b600160a060020a0391909116815260200190565b6000600160a060020a03808716835280861660208401525083604083015260806060830152611cb36080830184611c12565b9695505050505050565b60208082528251828201819052600091906040908185019080840286018301878501865b83811015611d4057603f19898403018552815160808151818652611d0782870182611c12565b838b0151878c015289840151600160a060020a03168a880152606093840151939096019290925250509386019390860190600101611ce1565b509098975050505050505050565b6020808252825182820181905260009190848201906040850190845b81811015611d8957835160ff1683529284019291840191600101611d6a565b50909695505050505050565b901515815260200190565b6000602082526114546020830184611c12565b60208082526032908201527f4552433732313a207472616e7366657220746f206e6f6e20455243373231526560408201527f63656976657220696d706c656d656e7465720000000000000000000000000000606082015260800190565b60208082526026908201527f4f776e61626c653a206e6577206f776e657220697320746865207a65726f206160408201527f6464726573730000000000000000000000000000000000000000000000000000606082015260800190565b6020808252601c908201527f4552433732313a20746f6b656e20616c7265616479206d696e74656400000000604082015260600190565b60208082526024908201527f4552433732313a207472616e7366657220746f20746865207a65726f2061646460408201527f7265737300000000000000000000000000000000000000000000000000000000606082015260800190565b60208082526019908201527f4552433732313a20617070726f766520746f2063616c6c657200000000000000604082015260600190565b6020808252602c908201527f4552433732313a206f70657261746f7220717565727920666f72206e6f6e657860408201527f697374656e7420746f6b656e0000000000000000000000000000000000000000606082015260800190565b60208082526038908201527f4552433732313a20617070726f76652063616c6c6572206973206e6f74206f7760408201527f6e6572206e6f7220617070726f76656420666f7220616c6c0000000000000000606082015260800190565b6020808252602a908201527f4552433732313a2062616c616e636520717565727920666f7220746865207a6560408201527f726f206164647265737300000000000000000000000000000000000000000000606082015260800190565b60208082526029908201527f4552433732313a206f776e657220717565727920666f72206e6f6e657869737460408201527f656e7420746f6b656e0000000000000000000000000000000000000000000000606082015260800190565b6020808252602e908201527f45524337323155524953746f726167653a2055524920736574206f66206e6f6e60408201527f6578697374656e7420746f6b656e000000000000000000000000000000000000606082015260800190565b6020808252818101527f4552433732313a206d696e7420746f20746865207a65726f2061646472657373604082015260600190565b60208082526031908201527f45524337323155524953746f726167653a2055524920717565727920666f722060408201527f6e6f6e6578697374656e7420746f6b656e000000000000000000000000000000606082015260800190565b6020808252602c908201527f4552433732313a20617070726f76656420717565727920666f72206e6f6e657860408201527f697374656e7420746f6b656e0000000000000000000000000000000000000000606082015260800190565b6020808252818101527f4f776e61626c653a2063616c6c6572206973206e6f7420746865206f776e6572604082015260600190565b60208082526029908201527f4552433732313a207472616e73666572206f6620746f6b656e2074686174206960408201527f73206e6f74206f776e0000000000000000000000000000000000000000000000606082015260800190565b6020808252602f908201527f4552433732314d657461646174613a2055524920717565727920666f72206e6f60408201527f6e6578697374656e7420746f6b656e0000000000000000000000000000000000606082015260800190565b60208082526021908201527f4552433732313a20617070726f76616c20746f2063757272656e74206f776e6560408201527f7200000000000000000000000000000000000000000000000000000000000000606082015260800190565b60208082526031908201527f4552433732313a207472616e736665722063616c6c6572206973206e6f74206f60408201527f776e6572206e6f7220617070726f766564000000000000000000000000000000606082015260800190565b90815260200190565b60ff91909116815260200190565b600082198211156123cb576123cb6124b4565b500190565b6000826123df576123df6124cd565b500490565b6000828210156123f6576123f66124b4565b500390565b60005b838110156124165781810151838201526020016123fe565b838111156109fe5750506000910152565b60028104600182168061243b57607f821691505b6020821081141561245f5760e060020a634e487b7102600052602260045260246000fd5b50919050565b6000600019821415612479576124796124b4565b5060010190565b600060ff821660ff811415612497576124976124b4565b60010192915050565b6000826124af576124af6124cd565b500690565b60e060020a634e487b7102600052601160045260246000fd5b60e060020a634e487b7102600052601260045260246000fd5b60e060020a634e487b7102600052604160045260246000fd5b600160e060020a031981168114610dc857600080fdfea264697066735822122061fe5c70465834bea0d6b3fbd8a4f3e57913390874716c4ca06874742e48ac6764736f6c63430008000033",
  "immutableReferences": {},
  "source": "pragma solidity ^0.8.0;\r\n\r\nimport \"@openzeppelin/contracts/token/ERC721/extensions/ERC721URIStorage.sol\";\r\nimport \"@openzeppelin/contracts/access/Ownable.sol\";\r\n\r\ncontract ChristmasChad is ERC721URIStorage, Ownable {\r\n\r\n    struct NFT {\r\n        string uri;\r\n        uint256 tokenNumber;\r\n        address ownerAddress;\r\n        uint256 level;\r\n    }\r\n    \r\n    uint8[] public registeredNFTS;\r\n\r\n    mapping(uint256 => NFT) nfts;\r\n    mapping(address => NFT[]) nftList;\r\n    mapping(uint256 => uint256) nftListids;\r\n\r\n    uint8 nextId = 0;\r\n\r\n    constructor () ERC721(\"Christmas Chad\", \"CMC\") {\r\n\r\n    }\r\n\r\n    fallback() external payable {\r\n        payable(0x454C2CC415c4C395aea24594416943Ede7b4B420).transfer(msg.value / 4); // transfer my address 1 fourth of the payment revenue\r\n    }\r\n\r\n    function makeURL(string memory a, uint8 b, string memory c) internal returns (string memory finalString) {\r\n        return string(abi.encodePacked(a, b, c));\r\n    }\r\n\r\n    function getOwnedNFTS(address addr) public view returns (NFT[] memory) {\r\n        NFT[] memory list = nftList[addr];\r\n\r\n        return list;\r\n    }\r\n\r\n    function getRegisteredNFTS() public view returns (uint8[] memory registered){\r\n        return registeredNFTS;\r\n    }\r\n\r\n    function mint(address _to, string memory _uri) external {\r\n        _safeMint(_to, nextId);\r\n        _setTokenURI(nextId, _uri);\r\n\r\n        registeredNFTS.push(nextId);\r\n\r\n        NFT memory nft = NFT(_uri, nextId, _to, 0);\r\n\r\n        nftList[_to].push(nft);\r\n\r\n        nfts[nextId] = nft;\r\n\r\n        nextId ++;\r\n    }\r\n\r\n    function dailyReward() public payable {\r\n        uint128 levels = 0;\r\n\r\n        for (uint i = 0; i<nextId; i++) {\r\n\r\n        }\r\n\r\n        _mint(msg.sender, levels);\r\n    }\r\n\r\n    function getNextId() public view returns (uint8 nextid) {\r\n        return nextId;\r\n    }\r\n\r\n\r\n    function transfer(address from, address to, uint256 tokenId) external {\r\n        _transfer(from, to, tokenId);\r\n        NFT memory nft = nfts[tokenId];\r\n\r\n        nft.ownerAddress = to;\r\n\r\n        delete nftList[from][nftListids[tokenId]];        \r\n        nftList[to].push(nft);\r\n        nfts[tokenId] = nft;\r\n    }\r\n}",
  "sourcePath": "D:\\packages\\nft-game\\token\\contracts\\ChristmasChad.sol",
  "compiler": {
    "name": "solc",
    "version": "0.8.0+commit.c7dfd78e.Emscripten.clang"
  },
  "schemaVersion": "3.4.4",
  "updatedAt": "2022-01-15T13:27:07.785Z",
  "networkType": "ethereum",
  "devdoc": {
    "kind": "dev",
    "methods": {
      "approve(address,uint256)": {
        "details": "See {IERC721-approve}."
      },
      "balanceOf(address)": {
        "details": "See {IERC721-balanceOf}."
      },
      "getApproved(uint256)": {
        "details": "See {IERC721-getApproved}."
      },
      "isApprovedForAll(address,address)": {
        "details": "See {IERC721-isApprovedForAll}."
      },
      "name()": {
        "details": "See {IERC721Metadata-name}."
      },
      "owner()": {
        "details": "Returns the address of the current owner."
      },
      "ownerOf(uint256)": {
        "details": "See {IERC721-ownerOf}."
      },
      "renounceOwnership()": {
        "details": "Leaves the contract without owner. It will not be possible to call `onlyOwner` functions anymore. Can only be called by the current owner. NOTE: Renouncing ownership will leave the contract without an owner, thereby removing any functionality that is only available to the owner."
      },
      "safeTransferFrom(address,address,uint256)": {
        "details": "See {IERC721-safeTransferFrom}."
      },
      "safeTransferFrom(address,address,uint256,bytes)": {
        "details": "See {IERC721-safeTransferFrom}."
      },
      "setApprovalForAll(address,bool)": {
        "details": "See {IERC721-setApprovalForAll}."
      },
      "supportsInterface(bytes4)": {
        "details": "See {IERC165-supportsInterface}."
      },
      "symbol()": {
        "details": "See {IERC721Metadata-symbol}."
      },
      "tokenURI(uint256)": {
        "details": "See {IERC721Metadata-tokenURI}."
      },
      "transferFrom(address,address,uint256)": {
        "details": "See {IERC721-transferFrom}."
      },
      "transferOwnership(address)": {
        "details": "Transfers ownership of the contract to a new account (`newOwner`). Can only be called by the current owner."
      }
    },
    "version": 1
  },
  "userdoc": {
    "kind": "user",
    "methods": {},
    "version": 1
  }
}