{
  "contractName": "NFTGame",
  "abi": [
    {
      "inputs": [],
      "stateMutability": "nonpayable",
      "type": "constructor"
    },
    {
      "anonymous": false,
      "inputs": [
        {
          "indexed": true,
          "internalType": "address",
          "name": "owner",
          "type": "address"
        },
        {
          "indexed": true,
          "internalType": "address",
          "name": "spender",
          "type": "address"
        },
        {
          "indexed": false,
          "internalType": "uint256",
          "name": "value",
          "type": "uint256"
        }
      ],
      "name": "Approval",
      "type": "event"
    },
    {
      "anonymous": false,
      "inputs": [
        {
          "indexed": true,
          "internalType": "address",
          "name": "previousOwner",
          "type": "address"
        },
        {
          "indexed": true,
          "internalType": "address",
          "name": "newOwner",
          "type": "address"
        }
      ],
      "name": "OwnershipTransferred",
      "type": "event"
    },
    {
      "anonymous": false,
      "inputs": [
        {
          "indexed": true,
          "internalType": "address",
          "name": "from",
          "type": "address"
        },
        {
          "indexed": true,
          "internalType": "address",
          "name": "to",
          "type": "address"
        },
        {
          "indexed": false,
          "internalType": "uint256",
          "name": "value",
          "type": "uint256"
        }
      ],
      "name": "Transfer",
      "type": "event"
    },
    {
      "stateMutability": "payable",
      "type": "fallback",
      "payable": true
    },
    {
      "inputs": [
        {
          "internalType": "address",
          "name": "",
          "type": "address"
        },
        {
          "internalType": "address",
          "name": "",
          "type": "address"
        }
      ],
      "name": "_allowances",
      "outputs": [
        {
          "internalType": "uint256",
          "name": "",
          "type": "uint256"
        }
      ],
      "stateMutability": "view",
      "type": "function",
      "constant": true
    },
    {
      "inputs": [
        {
          "internalType": "address",
          "name": "",
          "type": "address"
        }
      ],
      "name": "_balances",
      "outputs": [
        {
          "internalType": "uint256",
          "name": "",
          "type": "uint256"
        }
      ],
      "stateMutability": "view",
      "type": "function",
      "constant": true
    },
    {
      "inputs": [],
      "name": "_name",
      "outputs": [
        {
          "internalType": "string",
          "name": "",
          "type": "string"
        }
      ],
      "stateMutability": "view",
      "type": "function",
      "constant": true
    },
    {
      "inputs": [],
      "name": "_symbol",
      "outputs": [
        {
          "internalType": "string",
          "name": "",
          "type": "string"
        }
      ],
      "stateMutability": "view",
      "type": "function",
      "constant": true
    },
    {
      "inputs": [],
      "name": "_totalSupply",
      "outputs": [
        {
          "internalType": "uint256",
          "name": "",
          "type": "uint256"
        }
      ],
      "stateMutability": "view",
      "type": "function",
      "constant": true
    },
    {
      "inputs": [
        {
          "internalType": "address",
          "name": "owner",
          "type": "address"
        },
        {
          "internalType": "address",
          "name": "spender",
          "type": "address"
        }
      ],
      "name": "allowance",
      "outputs": [
        {
          "internalType": "uint256",
          "name": "",
          "type": "uint256"
        }
      ],
      "stateMutability": "view",
      "type": "function",
      "constant": true
    },
    {
      "inputs": [
        {
          "internalType": "address",
          "name": "spender",
          "type": "address"
        },
        {
          "internalType": "uint256",
          "name": "amount",
          "type": "uint256"
        }
      ],
      "name": "approve",
      "outputs": [
        {
          "internalType": "bool",
          "name": "",
          "type": "bool"
        }
      ],
      "stateMutability": "nonpayable",
      "type": "function"
    },
    {
      "inputs": [
        {
          "internalType": "address",
          "name": "account",
          "type": "address"
        }
      ],
      "name": "balanceOf",
      "outputs": [
        {
          "internalType": "uint256",
          "name": "",
          "type": "uint256"
        }
      ],
      "stateMutability": "view",
      "type": "function",
      "constant": true
    },
    {
      "inputs": [
        {
          "internalType": "uint8",
          "name": "",
          "type": "uint8"
        }
      ],
      "name": "champs",
      "outputs": [
        {
          "internalType": "uint8",
          "name": "id",
          "type": "uint8"
        },
        {
          "internalType": "uint256",
          "name": "damage",
          "type": "uint256"
        },
        {
          "internalType": "uint256",
          "name": "health",
          "type": "uint256"
        },
        {
          "internalType": "uint256",
          "name": "maxHealth",
          "type": "uint256"
        },
        {
          "internalType": "uint8",
          "name": "level",
          "type": "uint8"
        },
        {
          "internalType": "uint256",
          "name": "endurance",
          "type": "uint256"
        },
        {
          "internalType": "uint256",
          "name": "lasteaten",
          "type": "uint256"
        },
        {
          "internalType": "uint256",
          "name": "starvationTime",
          "type": "uint256"
        },
        {
          "internalType": "address",
          "name": "ownerAddress",
          "type": "address"
        },
        {
          "internalType": "uint256",
          "name": "feedCost",
          "type": "uint256"
        }
      ],
      "stateMutability": "view",
      "type": "function",
      "constant": true
    },
    {
      "inputs": [],
      "name": "decimals",
      "outputs": [
        {
          "internalType": "uint8",
          "name": "",
          "type": "uint8"
        }
      ],
      "stateMutability": "view",
      "type": "function",
      "constant": true
    },
    {
      "inputs": [
        {
          "internalType": "address",
          "name": "spender",
          "type": "address"
        },
        {
          "internalType": "uint256",
          "name": "subtractedValue",
          "type": "uint256"
        }
      ],
      "name": "decreaseAllowance",
      "outputs": [
        {
          "internalType": "bool",
          "name": "",
          "type": "bool"
        }
      ],
      "stateMutability": "nonpayable",
      "type": "function"
    },
    {
      "inputs": [
        {
          "internalType": "address",
          "name": "spender",
          "type": "address"
        },
        {
          "internalType": "uint256",
          "name": "addedValue",
          "type": "uint256"
        }
      ],
      "name": "increaseAllowance",
      "outputs": [
        {
          "internalType": "bool",
          "name": "",
          "type": "bool"
        }
      ],
      "stateMutability": "nonpayable",
      "type": "function"
    },
    {
      "inputs": [],
      "name": "name",
      "outputs": [
        {
          "internalType": "string",
          "name": "",
          "type": "string"
        }
      ],
      "stateMutability": "view",
      "type": "function",
      "constant": true
    },
    {
      "inputs": [],
      "name": "owner",
      "outputs": [
        {
          "internalType": "address",
          "name": "",
          "type": "address"
        }
      ],
      "stateMutability": "view",
      "type": "function",
      "constant": true
    },
    {
      "inputs": [
        {
          "internalType": "address",
          "name": "",
          "type": "address"
        },
        {
          "internalType": "uint256",
          "name": "",
          "type": "uint256"
        }
      ],
      "name": "petList",
      "outputs": [
        {
          "internalType": "uint8",
          "name": "id",
          "type": "uint8"
        },
        {
          "internalType": "uint256",
          "name": "damage",
          "type": "uint256"
        },
        {
          "internalType": "uint256",
          "name": "health",
          "type": "uint256"
        },
        {
          "internalType": "uint256",
          "name": "maxHealth",
          "type": "uint256"
        },
        {
          "internalType": "uint8",
          "name": "level",
          "type": "uint8"
        },
        {
          "internalType": "uint256",
          "name": "endurance",
          "type": "uint256"
        },
        {
          "internalType": "uint256",
          "name": "lasteaten",
          "type": "uint256"
        },
        {
          "internalType": "uint256",
          "name": "starvationTime",
          "type": "uint256"
        },
        {
          "internalType": "address",
          "name": "ownerAddress",
          "type": "address"
        },
        {
          "internalType": "uint256",
          "name": "feedCost",
          "type": "uint256"
        }
      ],
      "stateMutability": "view",
      "type": "function",
      "constant": true
    },
    {
      "inputs": [
        {
          "internalType": "uint8",
          "name": "",
          "type": "uint8"
        }
      ],
      "name": "petPosition",
      "outputs": [
        {
          "internalType": "uint8",
          "name": "",
          "type": "uint8"
        }
      ],
      "stateMutability": "view",
      "type": "function",
      "constant": true
    },
    {
      "inputs": [
        {
          "internalType": "uint8",
          "name": "",
          "type": "uint8"
        }
      ],
      "name": "petowners",
      "outputs": [
        {
          "internalType": "address",
          "name": "",
          "type": "address"
        }
      ],
      "stateMutability": "view",
      "type": "function",
      "constant": true
    },
    {
      "inputs": [],
      "name": "renounceOwnership",
      "outputs": [],
      "stateMutability": "nonpayable",
      "type": "function"
    },
    {
      "inputs": [],
      "name": "symbol",
      "outputs": [
        {
          "internalType": "string",
          "name": "",
          "type": "string"
        }
      ],
      "stateMutability": "view",
      "type": "function",
      "constant": true
    },
    {
      "inputs": [],
      "name": "totalSupply",
      "outputs": [
        {
          "internalType": "uint256",
          "name": "",
          "type": "uint256"
        }
      ],
      "stateMutability": "view",
      "type": "function",
      "constant": true
    },
    {
      "inputs": [
        {
          "internalType": "address",
          "name": "recipient",
          "type": "address"
        },
        {
          "internalType": "uint256",
          "name": "amount",
          "type": "uint256"
        }
      ],
      "name": "transfer",
      "outputs": [
        {
          "internalType": "bool",
          "name": "",
          "type": "bool"
        }
      ],
      "stateMutability": "nonpayable",
      "type": "function"
    },
    {
      "inputs": [
        {
          "internalType": "address",
          "name": "sender",
          "type": "address"
        },
        {
          "internalType": "address",
          "name": "recipient",
          "type": "address"
        },
        {
          "internalType": "uint256",
          "name": "amount",
          "type": "uint256"
        }
      ],
      "name": "transferFrom",
      "outputs": [
        {
          "internalType": "bool",
          "name": "",
          "type": "bool"
        }
      ],
      "stateMutability": "nonpayable",
      "type": "function"
    },
    {
      "inputs": [
        {
          "internalType": "address",
          "name": "newOwner",
          "type": "address"
        }
      ],
      "name": "transferOwnership",
      "outputs": [],
      "stateMutability": "nonpayable",
      "type": "function"
    },
    {
      "inputs": [
        {
          "internalType": "address",
          "name": "addr",
          "type": "address"
        }
      ],
      "name": "getOwnedChamps",
      "outputs": [
        {
          "components": [
            {
              "internalType": "uint8",
              "name": "id",
              "type": "uint8"
            },
            {
              "internalType": "uint256",
              "name": "damage",
              "type": "uint256"
            },
            {
              "internalType": "uint256",
              "name": "health",
              "type": "uint256"
            },
            {
              "internalType": "uint256",
              "name": "maxHealth",
              "type": "uint256"
            },
            {
              "internalType": "uint8",
              "name": "level",
              "type": "uint8"
            },
            {
              "internalType": "uint256",
              "name": "endurance",
              "type": "uint256"
            },
            {
              "internalType": "uint256",
              "name": "lasteaten",
              "type": "uint256"
            },
            {
              "internalType": "uint256",
              "name": "starvationTime",
              "type": "uint256"
            },
            {
              "internalType": "address",
              "name": "ownerAddress",
              "type": "address"
            },
            {
              "internalType": "uint256",
              "name": "feedCost",
              "type": "uint256"
            }
          ],
          "internalType": "struct NFTGame.ChristmasChamp[]",
          "name": "",
          "type": "tuple[]"
        }
      ],
      "stateMutability": "view",
      "type": "function",
      "constant": true
    },
    {
      "inputs": [
        {
          "internalType": "address",
          "name": "addr",
          "type": "address"
        },
        {
          "internalType": "uint256",
          "name": "amount",
          "type": "uint256"
        }
      ],
      "name": "mint",
      "outputs": [],
      "stateMutability": "nonpayable",
      "type": "function"
    },
    {
      "inputs": [
        {
          "internalType": "address",
          "name": "addr",
          "type": "address"
        },
        {
          "internalType": "uint256",
          "name": "amount",
          "type": "uint256"
        }
      ],
      "name": "burn",
      "outputs": [],
      "stateMutability": "nonpayable",
      "type": "function"
    },
    {
      "inputs": [],
      "name": "dailyReward",
      "outputs": [],
      "stateMutability": "payable",
      "type": "function",
      "payable": true
    },
    {
      "inputs": [],
      "name": "getNextId",
      "outputs": [
        {
          "internalType": "uint8",
          "name": "nextid",
          "type": "uint8"
        }
      ],
      "stateMutability": "view",
      "type": "function",
      "constant": true
    },
    {
      "inputs": [
        {
          "internalType": "uint8",
          "name": "champId",
          "type": "uint8"
        }
      ],
      "name": "getChampById",
      "outputs": [
        {
          "components": [
            {
              "internalType": "uint8",
              "name": "id",
              "type": "uint8"
            },
            {
              "internalType": "uint256",
              "name": "damage",
              "type": "uint256"
            },
            {
              "internalType": "uint256",
              "name": "health",
              "type": "uint256"
            },
            {
              "internalType": "uint256",
              "name": "maxHealth",
              "type": "uint256"
            },
            {
              "internalType": "uint8",
              "name": "level",
              "type": "uint8"
            },
            {
              "internalType": "uint256",
              "name": "endurance",
              "type": "uint256"
            },
            {
              "internalType": "uint256",
              "name": "lasteaten",
              "type": "uint256"
            },
            {
              "internalType": "uint256",
              "name": "starvationTime",
              "type": "uint256"
            },
            {
              "internalType": "address",
              "name": "ownerAddress",
              "type": "address"
            },
            {
              "internalType": "uint256",
              "name": "feedCost",
              "type": "uint256"
            }
          ],
          "internalType": "struct NFTGame.ChristmasChamp",
          "name": "champ",
          "type": "tuple"
        }
      ],
      "stateMutability": "view",
      "type": "function",
      "constant": true
    },
    {
      "inputs": [
        {
          "internalType": "uint8",
          "name": "champId",
          "type": "uint8"
        }
      ],
      "name": "getLastEatenById",
      "outputs": [
        {
          "internalType": "uint256",
          "name": "lasteaten",
          "type": "uint256"
        }
      ],
      "stateMutability": "view",
      "type": "function",
      "constant": true
    },
    {
      "inputs": [
        {
          "internalType": "uint8",
          "name": "champId",
          "type": "uint8"
        }
      ],
      "name": "levelUpChamp",
      "outputs": [],
      "stateMutability": "view",
      "type": "function",
      "constant": true
    },
    {
      "inputs": [
        {
          "internalType": "uint8",
          "name": "champId",
          "type": "uint8"
        }
      ],
      "name": "feed",
      "outputs": [],
      "stateMutability": "payable",
      "type": "function",
      "payable": true
    },
    {
      "inputs": [
        {
          "internalType": "address",
          "name": "from",
          "type": "address"
        },
        {
          "internalType": "address",
          "name": "to",
          "type": "address"
        },
        {
          "internalType": "uint8",
          "name": "champId",
          "type": "uint8"
        }
      ],
      "name": "transferChamp",
      "outputs": [],
      "stateMutability": "nonpayable",
      "type": "function"
    },
    {
      "inputs": [
        {
          "internalType": "address",
          "name": "recipient",
          "type": "address"
        }
      ],
      "name": "createChamp",
      "outputs": [
        {
          "components": [
            {
              "internalType": "uint8",
              "name": "id",
              "type": "uint8"
            },
            {
              "internalType": "uint256",
              "name": "damage",
              "type": "uint256"
            },
            {
              "internalType": "uint256",
              "name": "health",
              "type": "uint256"
            },
            {
              "internalType": "uint256",
              "name": "maxHealth",
              "type": "uint256"
            },
            {
              "internalType": "uint8",
              "name": "level",
              "type": "uint8"
            },
            {
              "internalType": "uint256",
              "name": "endurance",
              "type": "uint256"
            },
            {
              "internalType": "uint256",
              "name": "lasteaten",
              "type": "uint256"
            },
            {
              "internalType": "uint256",
              "name": "starvationTime",
              "type": "uint256"
            },
            {
              "internalType": "address",
              "name": "ownerAddress",
              "type": "address"
            },
            {
              "internalType": "uint256",
              "name": "feedCost",
              "type": "uint256"
            }
          ],
          "internalType": "struct NFTGame.ChristmasChamp",
          "name": "",
          "type": "tuple"
        }
      ],
      "stateMutability": "nonpayable",
      "type": "function"
    }
  ],
  "bytecode": "0x60806040526000600a60006101000a81548160ff021916908360ff1602179055503480156200002d57600080fd5b506040518060400160405280600981526020017f43616e647943616e6500000000000000000000000000000000000000000000008152506040518060400160405280600281526020017f43430000000000000000000000000000000000000000000000000000000000008152508160039080519060200190620000b2929190620001c2565b508060049080519060200190620000cb929190620001c2565b505050620000ee620000e2620000f460201b60201c565b620000fc60201b60201c565b620002d7565b600033905090565b6000600560009054906101000a900473ffffffffffffffffffffffffffffffffffffffff16905081600560006101000a81548173ffffffffffffffffffffffffffffffffffffffff021916908373ffffffffffffffffffffffffffffffffffffffff1602179055508173ffffffffffffffffffffffffffffffffffffffff168173ffffffffffffffffffffffffffffffffffffffff167f8be0079c531659141344cd1fd0a4f28419497f9722a3daafe3b4186f6b6457e060405160405180910390a35050565b828054620001d090620002a1565b90600052602060002090601f016020900481019282620001f4576000855562000240565b82601f106200020f57805160ff191683800117855562000240565b8280016001018555821562000240579182015b828111156200023f57825182559160200191906001019062000222565b5b5090506200024f919062000253565b5090565b5b808211156200026e57600081600090555060010162000254565b5090565b7f4e487b7100000000000000000000000000000000000000000000000000000000600052602260045260246000fd5b60006002820490506001821680620002ba57607f821691505b60208210811415620002d157620002d062000272565b5b50919050565b613c0080620002e76000396000f3fe6080604052600436106101fd5760003560e01c80636ebcf6071161010d578063a457c2d7116100a0578063c964ad451161006f578063c964ad451461081a578063d28d885214610824578063d8db964b1461084f578063dd62ed3e1461088c578063f2fde38b146108c9576101fe565b8063a457c2d71461074a578063a9059cbb14610787578063b09f1266146107c4578063bc968326146107ef576101fe565b806384198508116100dc57806384198508146106a25780638da5cb5b146106cb57806395d89b41146106f65780639dc29fac14610721576101fe565b80636ebcf607146105d457806370a0823114610611578063715018a61461064e578063780bbe6014610665576101fe565b8063395093511161019057806346ea2a921161015f57806346ea2a92146104d857806350d314e5146104f457806350dcff351461053157806368cc663e1461056e57806369e98899146105ab576101fe565b806339509351146104015780633eaaf86b1461043e57806340c10f191461046957806343232def14610492576101fe565b806318160ddd116101cc57806318160ddd1461032857806323b872dd1461035357806324ca58fe14610390578063313ce567146103d6576101fe565b8063024c2ddd1461024657806306fdde0314610283578063095ea7b3146102ae5780630bd09473146102eb576101fe565b5b6000349050610243336127108060016102156108f2565b61021f9190612b4e565b6102299190612bd3565b6102339190612c04565b8361023e9190612bd3565b6108fc565b50005b34801561025257600080fd5b5061026d60048036038101906102689190612cc1565b610a5c565b60405161027a9190612d10565b60405180910390f35b34801561028f57600080fd5b50610298610a81565b6040516102a59190612dc4565b60405180910390f35b3480156102ba57600080fd5b506102d560048036038101906102d09190612e12565b610b13565b6040516102e29190612e6d565b60405180910390f35b3480156102f757600080fd5b50610312600480360381019061030d9190612ec1565b610b31565b60405161031f9190612efd565b60405180910390f35b34801561033457600080fd5b5061033d6108f2565b60405161034a9190612d10565b60405180910390f35b34801561035f57600080fd5b5061037a60048036038101906103759190612f18565b610b64565b6040516103879190612e6d565b60405180910390f35b34801561039c57600080fd5b506103b760048036038101906103b29190612e12565b610c5c565b6040516103cd9a99989796959493929190612f7a565b60405180910390f35b3480156103e257600080fd5b506103eb610d07565b6040516103f89190613016565b60405180910390f35b34801561040d57600080fd5b5061042860048036038101906104239190612e12565b610d10565b6040516104359190612e6d565b60405180910390f35b34801561044a57600080fd5b50610453610dbc565b6040516104609190612d10565b60405180910390f35b34801561047557600080fd5b50610490600480360381019061048b9190612e12565b610dc2565b005b34801561049e57600080fd5b506104b960048036038101906104b49190612ec1565b610de3565b6040516104cf9a99989796959493929190612f7a565b60405180910390f35b6104f260048036038101906104ed9190612ec1565b610e71565b005b34801561050057600080fd5b5061051b60048036038101906105169190613031565b610fe8565b6040516105289190613207565b60405180910390f35b34801561053d57600080fd5b5061055860048036038101906105539190612ec1565b61115d565b6040516105659190613016565b60405180910390f35b34801561057a57600080fd5b5061059560048036038101906105909190612ec1565b61117d565b6040516105a291906132f5565b60405180910390f35b3480156105b757600080fd5b506105d260048036038101906105cd9190612ec1565b611287565b005b3480156105e057600080fd5b506105fb60048036038101906105f69190613031565b61143c565b6040516106089190612d10565b60405180910390f35b34801561061d57600080fd5b5061063860048036038101906106339190613031565b611454565b6040516106459190612d10565b60405180910390f35b34801561065a57600080fd5b5061066361149c565b005b34801561067157600080fd5b5061068c60048036038101906106879190613031565b611524565b60405161069991906132f5565b60405180910390f35b3480156106ae57600080fd5b506106c960048036038101906106c49190613311565b611994565b005b3480156106d757600080fd5b506106e0611d20565b6040516106ed9190612efd565b60405180910390f35b34801561070257600080fd5b5061070b611d4a565b6040516107189190612dc4565b60405180910390f35b34801561072d57600080fd5b5061074860048036038101906107439190612e12565b611ddc565b005b34801561075657600080fd5b50610771600480360381019061076c9190612e12565b611dea565b60405161077e9190612e6d565b60405180910390f35b34801561079357600080fd5b506107ae60048036038101906107a99190612e12565b611ed5565b6040516107bb9190612e6d565b60405180910390f35b3480156107d057600080fd5b506107d9611ef3565b6040516107e69190612dc4565b60405180910390f35b3480156107fb57600080fd5b50610804611f81565b6040516108119190613016565b60405180910390f35b610822611f98565b005b34801561083057600080fd5b50610839612178565b6040516108469190612dc4565b60405180910390f35b34801561085b57600080fd5b5061087660048036038101906108719190612ec1565b612206565b6040516108839190612d10565b60405180910390f35b34801561089857600080fd5b506108b360048036038101906108ae9190612cc1565b61222c565b6040516108c09190612d10565b60405180910390f35b3480156108d557600080fd5b506108f060048036038101906108eb9190613031565b6122b3565b005b6000600254905090565b600073ffffffffffffffffffffffffffffffffffffffff168273ffffffffffffffffffffffffffffffffffffffff16141561096c576040517f08c379a0000000000000000000000000000000000000000000000000000000008152600401610963906133b0565b60405180910390fd5b610978600083836123ab565b806002600082825461098a9190612b4e565b92505081905550806000808473ffffffffffffffffffffffffffffffffffffffff1673ffffffffffffffffffffffffffffffffffffffff16815260200190815260200160002060008282546109df9190612b4e565b925050819055508173ffffffffffffffffffffffffffffffffffffffff16600073ffffffffffffffffffffffffffffffffffffffff167fddf252ad1be2c89b69c2b068fc378daa952ba7f163c4a11628f55a4df523b3ef83604051610a449190612d10565b60405180910390a3610a58600083836123b0565b5050565b6001602052816000526040600020602052806000526040600020600091509150505481565b606060038054610a90906133ff565b80601f0160208091040260200160405190810160405280929190818152602001828054610abc906133ff565b8015610b095780601f10610ade57610100808354040283529160200191610b09565b820191906000526020600020905b815481529060010190602001808311610aec57829003601f168201915b5050505050905090565b6000610b27610b206123b5565b84846123bd565b6001905092915050565b60066020528060005260406000206000915054906101000a900473ffffffffffffffffffffffffffffffffffffffff1681565b6000610b71848484612588565b6000600160008673ffffffffffffffffffffffffffffffffffffffff1673ffffffffffffffffffffffffffffffffffffffff1681526020019081526020016000206000610bbc6123b5565b73ffffffffffffffffffffffffffffffffffffffff1673ffffffffffffffffffffffffffffffffffffffff16815260200190815260200160002054905082811015610c3c576040517f08c379a0000000000000000000000000000000000000000000000000000000008152600401610c33906134a3565b60405180910390fd5b610c5085610c486123b5565b8584036123bd565b60019150509392505050565b60096020528160005260406000208181548110610c7857600080fd5b90600052602060002090600a0201600091509150508060000160009054906101000a900460ff16908060010154908060020154908060030154908060040160009054906101000a900460ff16908060050154908060060154908060070154908060080160009054906101000a900473ffffffffffffffffffffffffffffffffffffffff1690806009015490508a565b60006012905090565b6000610db2610d1d6123b5565b848460016000610d2b6123b5565b73ffffffffffffffffffffffffffffffffffffffff1673ffffffffffffffffffffffffffffffffffffffff16815260200190815260200160002060008873ffffffffffffffffffffffffffffffffffffffff1673ffffffffffffffffffffffffffffffffffffffff16815260200190815260200160002054610dad9190612b4e565b6123bd565b6001905092915050565b60025481565b610ddf82670de0b6b3a764000083610dda9190612c04565b6108fc565b5050565b60076020528060005260406000206000915090508060000160009054906101000a900460ff16908060010154908060020154908060030154908060040160009054906101000a900460ff16908060050154908060060154908060070154908060080160009054906101000a900473ffffffffffffffffffffffffffffffffffffffff1690806009015490508a565b6000600760008360ff1660ff168152602001908152602001600020604051806101400160405290816000820160009054906101000a900460ff1660ff1660ff1681526020016001820154815260200160028201548152602001600382015481526020016004820160009054906101000a900460ff1660ff1660ff1681526020016005820154815260200160068201548152602001600782015481526020016008820160009054906101000a900473ffffffffffffffffffffffffffffffffffffffff1673ffffffffffffffffffffffffffffffffffffffff1673ffffffffffffffffffffffffffffffffffffffff16815260200160098201548152505090506103e8816101200151610f839190612bd3565b6000803373ffffffffffffffffffffffffffffffffffffffff1673ffffffffffffffffffffffffffffffffffffffff168152602001908152602001600020541015610fcd57600080fd5b610fd682611287565b80606001518160400181815250505050565b6060600960008373ffffffffffffffffffffffffffffffffffffffff1673ffffffffffffffffffffffffffffffffffffffff168152602001908152602001600020805480602002602001604051908101604052809291908181526020016000905b8282101561115257838290600052602060002090600a0201604051806101400160405290816000820160009054906101000a900460ff1660ff1660ff1681526020016001820154815260200160028201548152602001600382015481526020016004820160009054906101000a900460ff1660ff1660ff1681526020016005820154815260200160068201548152602001600782015481526020016008820160009054906101000a900473ffffffffffffffffffffffffffffffffffffffff1673ffffffffffffffffffffffffffffffffffffffff1673ffffffffffffffffffffffffffffffffffffffff16815260200160098201548152505081526020019060010190611049565b505050509050919050565b60086020528060005260406000206000915054906101000a900460ff1681565b611185612aa6565b600760008360ff1660ff168152602001908152602001600020604051806101400160405290816000820160009054906101000a900460ff1660ff1660ff1681526020016001820154815260200160028201548152602001600382015481526020016004820160009054906101000a900460ff1660ff1660ff1681526020016005820154815260200160068201548152602001600782015481526020016008820160009054906101000a900473ffffffffffffffffffffffffffffffffffffffff1673ffffffffffffffffffffffffffffffffffffffff1673ffffffffffffffffffffffffffffffffffffffff1681526020016009820154815250509050919050565b6000600760008360ff1660ff168152602001908152602001600020604051806101400160405290816000820160009054906101000a900460ff1660ff1660ff1681526020016001820154815260200160028201548152602001600382015481526020016004820160009054906101000a900460ff1660ff1660ff1681526020016005820154815260200160068201548152602001600782015481526020016008820160009054906101000a900473ffffffffffffffffffffffffffffffffffffffff1673ffffffffffffffffffffffffffffffffffffffff1673ffffffffffffffffffffffffffffffffffffffff168152602001600982015481525050905060018160800181815161139991906134c3565b91509060ff16908160ff1681525050606481610120018181516113bc9190612b4e565b91508181525050600a816060018181516113d69190612b4e565b9150818152505060648160a0018181516113f09190612b4e565b91508181525050600a8160200181815161140a9190612b4e565b91508181525050428160c00181815250508060a001518160c0015161142f9190612b4e565b8160e00181815250505050565b60006020528060005260406000206000915090505481565b60008060008373ffffffffffffffffffffffffffffffffffffffff1673ffffffffffffffffffffffffffffffffffffffff168152602001908152602001600020549050919050565b6114a46123b5565b73ffffffffffffffffffffffffffffffffffffffff166114c2611d20565b73ffffffffffffffffffffffffffffffffffffffff1614611518576040517f08c379a000000000000000000000000000000000000000000000000000000000815260040161150f90613546565b60405180910390fd5b6115226000612809565b565b61152c612aa6565b600060076000600a60009054906101000a900460ff1660ff1660ff1681526020019081526020016000209050600a60009054906101000a900460ff168160000160006101000a81548160ff021916908360ff16021790555060058160010181905550606481600201819055506064816003018190555060018160040160006101000a81548160ff021916908360ff1602179055506127108160050181905550428160060181905550806005015481600601546115e89190612b4e565b8160070181905550828160080160006101000a81548173ffffffffffffffffffffffffffffffffffffffff021916908373ffffffffffffffffffffffffffffffffffffffff160217905550601981600901819055508260066000600a60009054906101000a900460ff1660ff1660ff16815260200190815260200160002060006101000a81548173ffffffffffffffffffffffffffffffffffffffff021916908373ffffffffffffffffffffffffffffffffffffffff160217905550600960008473ffffffffffffffffffffffffffffffffffffffff1673ffffffffffffffffffffffffffffffffffffffff16815260200190815260200160002060076000600a60009054906101000a900460ff1660ff1660ff16815260200190815260200160002090806001815401808255809150506001900390600052602060002090600a02016000909190919091506000820160009054906101000a900460ff168160000160006101000a81548160ff021916908360ff1602179055506001820154816001015560028201548160020155600382015481600301556004820160009054906101000a900460ff168160040160006101000a81548160ff021916908360ff1602179055506005820154816005015560068201548160060155600782015481600701556008820160009054906101000a900473ffffffffffffffffffffffffffffffffffffffff168160080160006101000a81548173ffffffffffffffffffffffffffffffffffffffff021916908373ffffffffffffffffffffffffffffffffffffffff1602179055506009820154816009015550506001600a60008282829054906101000a900460ff1661185e91906134c3565b92506101000a81548160ff021916908360ff160217905550600760006001600a60009054906101000a900460ff166118969190613566565b60ff1660ff168152602001908152602001600020604051806101400160405290816000820160009054906101000a900460ff1660ff1660ff1681526020016001820154815260200160028201548152602001600382015481526020016004820160009054906101000a900460ff1660ff1660ff1681526020016005820154815260200160068201548152602001600782015481526020016008820160009054906101000a900473ffffffffffffffffffffffffffffffffffffffff1673ffffffffffffffffffffffffffffffffffffffff1673ffffffffffffffffffffffffffffffffffffffff168152602001600982015481525050915050919050565b6000600760008360ff1660ff168152602001908152602001600020604051806101400160405290816000820160009054906101000a900460ff1660ff1660ff1681526020016001820154815260200160028201548152602001600382015481526020016004820160009054906101000a900460ff1660ff1660ff1681526020016005820154815260200160068201548152602001600782015481526020016008820160009054906101000a900473ffffffffffffffffffffffffffffffffffffffff1673ffffffffffffffffffffffffffffffffffffffff1673ffffffffffffffffffffffffffffffffffffffff16815260200160098201548152505090508281610100019073ffffffffffffffffffffffffffffffffffffffff16908173ffffffffffffffffffffffffffffffffffffffff1681525050600960008573ffffffffffffffffffffffffffffffffffffffff1673ffffffffffffffffffffffffffffffffffffffff168152602001908152602001600020600860008460ff1660ff16815260200190815260200160002060009054906101000a900460ff1660ff1681548110611b4657611b4561359a565b5b90600052602060002090600a0201600080820160006101000a81549060ff02191690556001820160009055600282016000905560038201600090556004820160006101000a81549060ff02191690556005820160009055600682016000905560078201600090556008820160006101000a81549073ffffffffffffffffffffffffffffffffffffffff021916905560098201600090555050600960008473ffffffffffffffffffffffffffffffffffffffff1673ffffffffffffffffffffffffffffffffffffffff1681526020019081526020016000208190806001815401808255809150506001900390600052602060002090600a020160009091909190915060008201518160000160006101000a81548160ff021916908360ff16021790555060208201518160010155604082015181600201556060820151816003015560808201518160040160006101000a81548160ff021916908360ff16021790555060a0820151816005015560c0820151816006015560e082015181600701556101008201518160080160006101000a81548173ffffffffffffffffffffffffffffffffffffffff021916908373ffffffffffffffffffffffffffffffffffffffff1602179055506101208201518160090155505050505050565b6000600560009054906101000a900473ffffffffffffffffffffffffffffffffffffffff16905090565b606060048054611d59906133ff565b80601f0160208091040260200160405190810160405280929190818152602001828054611d85906133ff565b8015611dd25780601f10611da757610100808354040283529160200191611dd2565b820191906000526020600020905b815481529060010190602001808311611db557829003601f168201915b5050505050905090565b611de682826128cf565b5050565b60008060016000611df96123b5565b73ffffffffffffffffffffffffffffffffffffffff1673ffffffffffffffffffffffffffffffffffffffff16815260200190815260200160002060008573ffffffffffffffffffffffffffffffffffffffff1673ffffffffffffffffffffffffffffffffffffffff16815260200190815260200160002054905082811015611eb6576040517f08c379a0000000000000000000000000000000000000000000000000000000008152600401611ead9061363b565b60405180910390fd5b611eca611ec16123b5565b858584036123bd565b600191505092915050565b6000611ee9611ee26123b5565b8484612588565b6001905092915050565b60048054611f00906133ff565b80601f0160208091040260200160405190810160405280929190818152602001828054611f2c906133ff565b8015611f795780601f10611f4e57610100808354040283529160200191611f79565b820191906000526020600020905b815481529060010190602001808311611f5c57829003601f168201915b505050505081565b6000600a60009054906101000a900460ff16905090565b600080600960003373ffffffffffffffffffffffffffffffffffffffff1673ffffffffffffffffffffffffffffffffffffffff168152602001908152602001600020805480602002602001604051908101604052809291908181526020016000905b8282101561210357838290600052602060002090600a0201604051806101400160405290816000820160009054906101000a900460ff1660ff1660ff1681526020016001820154815260200160028201548152602001600382015481526020016004820160009054906101000a900460ff1660ff1660ff1681526020016005820154815260200160068201548152602001600782015481526020016008820160009054906101000a900473ffffffffffffffffffffffffffffffffffffffff1673ffffffffffffffffffffffffffffffffffffffff1673ffffffffffffffffffffffffffffffffffffffff16815260200160098201548152505081526020019060010190611ffa565b50505050905060005b8151811015612157578181815181106121285761212761359a565b5b60200260200101516080015160ff16836121429190613677565b9250808061214f906136bd565b91505061210c565b5061217433836fffffffffffffffffffffffffffffffff166108fc565b5050565b60038054612185906133ff565b80601f01602080910402602001604051908101604052809291908181526020018280546121b1906133ff565b80156121fe5780601f106121d3576101008083540402835291602001916121fe565b820191906000526020600020905b8154815290600101906020018083116121e157829003601f168201915b505050505081565b6000600760008360ff1660ff168152602001908152602001600020600601549050919050565b6000600160008473ffffffffffffffffffffffffffffffffffffffff1673ffffffffffffffffffffffffffffffffffffffff16815260200190815260200160002060008373ffffffffffffffffffffffffffffffffffffffff1673ffffffffffffffffffffffffffffffffffffffff16815260200190815260200160002054905092915050565b6122bb6123b5565b73ffffffffffffffffffffffffffffffffffffffff166122d9611d20565b73ffffffffffffffffffffffffffffffffffffffff161461232f576040517f08c379a000000000000000000000000000000000000000000000000000000000815260040161232690613546565b60405180910390fd5b600073ffffffffffffffffffffffffffffffffffffffff168173ffffffffffffffffffffffffffffffffffffffff16141561239f576040517f08c379a000000000000000000000000000000000000000000000000000000000815260040161239690613778565b60405180910390fd5b6123a881612809565b50565b505050565b505050565b600033905090565b600073ffffffffffffffffffffffffffffffffffffffff168373ffffffffffffffffffffffffffffffffffffffff16141561242d576040517f08c379a00000000000000000000000000000000000000000000000000000000081526004016124249061380a565b60405180910390fd5b600073ffffffffffffffffffffffffffffffffffffffff168273ffffffffffffffffffffffffffffffffffffffff16141561249d576040517f08c379a00000000000000000000000000000000000000000000000000000000081526004016124949061389c565b60405180910390fd5b80600160008573ffffffffffffffffffffffffffffffffffffffff1673ffffffffffffffffffffffffffffffffffffffff16815260200190815260200160002060008473ffffffffffffffffffffffffffffffffffffffff1673ffffffffffffffffffffffffffffffffffffffff168152602001908152602001600020819055508173ffffffffffffffffffffffffffffffffffffffff168373ffffffffffffffffffffffffffffffffffffffff167f8c5be1e5ebec7d5bd14f71427d1e84f3dd0314c0f7b2291e5b200ac8c7c3b9258360405161257b9190612d10565b60405180910390a3505050565b600073ffffffffffffffffffffffffffffffffffffffff168373ffffffffffffffffffffffffffffffffffffffff1614156125f8576040517f08c379a00000000000000000000000000000000000000000000000000000000081526004016125ef9061392e565b60405180910390fd5b600073ffffffffffffffffffffffffffffffffffffffff168273ffffffffffffffffffffffffffffffffffffffff161415612668576040517f08c379a000000000000000000000000000000000000000000000000000000000815260040161265f906139c0565b60405180910390fd5b6126738383836123ab565b60008060008573ffffffffffffffffffffffffffffffffffffffff1673ffffffffffffffffffffffffffffffffffffffff168152602001908152602001600020549050818110156126f9576040517f08c379a00000000000000000000000000000000000000000000000000000000081526004016126f090613a52565b60405180910390fd5b8181036000808673ffffffffffffffffffffffffffffffffffffffff1673ffffffffffffffffffffffffffffffffffffffff16815260200190815260200160002081905550816000808573ffffffffffffffffffffffffffffffffffffffff1673ffffffffffffffffffffffffffffffffffffffff168152602001908152602001600020600082825461278c9190612b4e565b925050819055508273ffffffffffffffffffffffffffffffffffffffff168473ffffffffffffffffffffffffffffffffffffffff167fddf252ad1be2c89b69c2b068fc378daa952ba7f163c4a11628f55a4df523b3ef846040516127f09190612d10565b60405180910390a36128038484846123b0565b50505050565b6000600560009054906101000a900473ffffffffffffffffffffffffffffffffffffffff16905081600560006101000a81548173ffffffffffffffffffffffffffffffffffffffff021916908373ffffffffffffffffffffffffffffffffffffffff1602179055508173ffffffffffffffffffffffffffffffffffffffff168173ffffffffffffffffffffffffffffffffffffffff167f8be0079c531659141344cd1fd0a4f28419497f9722a3daafe3b4186f6b6457e060405160405180910390a35050565b600073ffffffffffffffffffffffffffffffffffffffff168273ffffffffffffffffffffffffffffffffffffffff16141561293f576040517f08c379a000000000000000000000000000000000000000000000000000000000815260040161293690613ae4565b60405180910390fd5b61294b826000836123ab565b60008060008473ffffffffffffffffffffffffffffffffffffffff1673ffffffffffffffffffffffffffffffffffffffff168152602001908152602001600020549050818110156129d1576040517f08c379a00000000000000000000000000000000000000000000000000000000081526004016129c890613b76565b60405180910390fd5b8181036000808573ffffffffffffffffffffffffffffffffffffffff1673ffffffffffffffffffffffffffffffffffffffff168152602001908152602001600020819055508160026000828254612a289190613b96565b92505081905550600073ffffffffffffffffffffffffffffffffffffffff168373ffffffffffffffffffffffffffffffffffffffff167fddf252ad1be2c89b69c2b068fc378daa952ba7f163c4a11628f55a4df523b3ef84604051612a8d9190612d10565b60405180910390a3612aa1836000846123b0565b505050565b604051806101400160405280600060ff168152602001600081526020016000815260200160008152602001600060ff168152602001600081526020016000815260200160008152602001600073ffffffffffffffffffffffffffffffffffffffff168152602001600081525090565b6000819050919050565b7f4e487b7100000000000000000000000000000000000000000000000000000000600052601160045260246000fd5b6000612b5982612b15565b9150612b6483612b15565b9250827fffffffffffffffffffffffffffffffffffffffffffffffffffffffffffffffff03821115612b9957612b98612b1f565b5b828201905092915050565b7f4e487b7100000000000000000000000000000000000000000000000000000000600052601260045260246000fd5b6000612bde82612b15565b9150612be983612b15565b925082612bf957612bf8612ba4565b5b828204905092915050565b6000612c0f82612b15565b9150612c1a83612b15565b9250817fffffffffffffffffffffffffffffffffffffffffffffffffffffffffffffffff0483118215151615612c5357612c52612b1f565b5b828202905092915050565b600080fd5b600073ffffffffffffffffffffffffffffffffffffffff82169050919050565b6000612c8e82612c63565b9050919050565b612c9e81612c83565b8114612ca957600080fd5b50565b600081359050612cbb81612c95565b92915050565b60008060408385031215612cd857612cd7612c5e565b5b6000612ce685828601612cac565b9250506020612cf785828601612cac565b9150509250929050565b612d0a81612b15565b82525050565b6000602082019050612d256000830184612d01565b92915050565b600081519050919050565b600082825260208201905092915050565b60005b83811015612d65578082015181840152602081019050612d4a565b83811115612d74576000848401525b50505050565b6000601f19601f8301169050919050565b6000612d9682612d2b565b612da08185612d36565b9350612db0818560208601612d47565b612db981612d7a565b840191505092915050565b60006020820190508181036000830152612dde8184612d8b565b905092915050565b612def81612b15565b8114612dfa57600080fd5b50565b600081359050612e0c81612de6565b92915050565b60008060408385031215612e2957612e28612c5e565b5b6000612e3785828601612cac565b9250506020612e4885828601612dfd565b9150509250929050565b60008115159050919050565b612e6781612e52565b82525050565b6000602082019050612e826000830184612e5e565b92915050565b600060ff82169050919050565b612e9e81612e88565b8114612ea957600080fd5b50565b600081359050612ebb81612e95565b92915050565b600060208284031215612ed757612ed6612c5e565b5b6000612ee584828501612eac565b91505092915050565b612ef781612c83565b82525050565b6000602082019050612f126000830184612eee565b92915050565b600080600060608486031215612f3157612f30612c5e565b5b6000612f3f86828701612cac565b9350506020612f5086828701612cac565b9250506040612f6186828701612dfd565b9150509250925092565b612f7481612e88565b82525050565b600061014082019050612f90600083018d612f6b565b612f9d602083018c612d01565b612faa604083018b612d01565b612fb7606083018a612d01565b612fc46080830189612f6b565b612fd160a0830188612d01565b612fde60c0830187612d01565b612feb60e0830186612d01565b612ff9610100830185612eee565b613007610120830184612d01565b9b9a5050505050505050505050565b600060208201905061302b6000830184612f6b565b92915050565b60006020828403121561304757613046612c5e565b5b600061305584828501612cac565b91505092915050565b600081519050919050565b600082825260208201905092915050565b6000819050602082019050919050565b61309381612e88565b82525050565b6130a281612b15565b82525050565b6130b181612c83565b82525050565b610140820160008201516130ce600085018261308a565b5060208201516130e16020850182613099565b5060408201516130f46040850182613099565b5060608201516131076060850182613099565b50608082015161311a608085018261308a565b5060a082015161312d60a0850182613099565b5060c082015161314060c0850182613099565b5060e082015161315360e0850182613099565b506101008201516131686101008501826130a8565b5061012082015161317d610120850182613099565b50505050565b600061318f83836130b7565b6101408301905092915050565b6000602082019050919050565b60006131b48261305e565b6131be8185613069565b93506131c98361307a565b8060005b838110156131fa5781516131e18882613183565b97506131ec8361319c565b9250506001810190506131cd565b5085935050505092915050565b6000602082019050818103600083015261322181846131a9565b905092915050565b61014082016000820151613240600085018261308a565b5060208201516132536020850182613099565b5060408201516132666040850182613099565b5060608201516132796060850182613099565b50608082015161328c608085018261308a565b5060a082015161329f60a0850182613099565b5060c08201516132b260c0850182613099565b5060e08201516132c560e0850182613099565b506101008201516132da6101008501826130a8565b506101208201516132ef610120850182613099565b50505050565b60006101408201905061330b6000830184613229565b92915050565b60008060006060848603121561332a57613329612c5e565b5b600061333886828701612cac565b935050602061334986828701612cac565b925050604061335a86828701612eac565b9150509250925092565b7f45524332303a206d696e7420746f20746865207a65726f206164647265737300600082015250565b600061339a601f83612d36565b91506133a582613364565b602082019050919050565b600060208201905081810360008301526133c98161338d565b9050919050565b7f4e487b7100000000000000000000000000000000000000000000000000000000600052602260045260246000fd5b6000600282049050600182168061341757607f821691505b6020821081141561342b5761342a6133d0565b5b50919050565b7f45524332303a207472616e7366657220616d6f756e742065786365656473206160008201527f6c6c6f77616e6365000000000000000000000000000000000000000000000000602082015250565b600061348d602883612d36565b915061349882613431565b604082019050919050565b600060208201905081810360008301526134bc81613480565b9050919050565b60006134ce82612e88565b91506134d983612e88565b92508260ff038211156134ef576134ee612b1f565b5b828201905092915050565b7f4f776e61626c653a2063616c6c6572206973206e6f7420746865206f776e6572600082015250565b6000613530602083612d36565b915061353b826134fa565b602082019050919050565b6000602082019050818103600083015261355f81613523565b9050919050565b600061357182612e88565b915061357c83612e88565b92508282101561358f5761358e612b1f565b5b828203905092915050565b7f4e487b7100000000000000000000000000000000000000000000000000000000600052603260045260246000fd5b7f45524332303a2064656372656173656420616c6c6f77616e63652062656c6f7760008201527f207a65726f000000000000000000000000000000000000000000000000000000602082015250565b6000613625602583612d36565b9150613630826135c9565b604082019050919050565b6000602082019050818103600083015261365481613618565b9050919050565b60006fffffffffffffffffffffffffffffffff82169050919050565b60006136828261365b565b915061368d8361365b565b9250826fffffffffffffffffffffffffffffffff038211156136b2576136b1612b1f565b5b828201905092915050565b60006136c882612b15565b91507fffffffffffffffffffffffffffffffffffffffffffffffffffffffffffffffff8214156136fb576136fa612b1f565b5b600182019050919050565b7f4f776e61626c653a206e6577206f776e657220697320746865207a65726f206160008201527f6464726573730000000000000000000000000000000000000000000000000000602082015250565b6000613762602683612d36565b915061376d82613706565b604082019050919050565b6000602082019050818103600083015261379181613755565b9050919050565b7f45524332303a20617070726f76652066726f6d20746865207a65726f2061646460008201527f7265737300000000000000000000000000000000000000000000000000000000602082015250565b60006137f4602483612d36565b91506137ff82613798565b604082019050919050565b60006020820190508181036000830152613823816137e7565b9050919050565b7f45524332303a20617070726f766520746f20746865207a65726f20616464726560008201527f7373000000000000000000000000000000000000000000000000000000000000602082015250565b6000613886602283612d36565b91506138918261382a565b604082019050919050565b600060208201905081810360008301526138b581613879565b9050919050565b7f45524332303a207472616e736665722066726f6d20746865207a65726f20616460008201527f6472657373000000000000000000000000000000000000000000000000000000602082015250565b6000613918602583612d36565b9150613923826138bc565b604082019050919050565b600060208201905081810360008301526139478161390b565b9050919050565b7f45524332303a207472616e7366657220746f20746865207a65726f206164647260008201527f6573730000000000000000000000000000000000000000000000000000000000602082015250565b60006139aa602383612d36565b91506139b58261394e565b604082019050919050565b600060208201905081810360008301526139d98161399d565b9050919050565b7f45524332303a207472616e7366657220616d6f756e742065786365656473206260008201527f616c616e63650000000000000000000000000000000000000000000000000000602082015250565b6000613a3c602683612d36565b9150613a47826139e0565b604082019050919050565b60006020820190508181036000830152613a6b81613a2f565b9050919050565b7f45524332303a206275726e2066726f6d20746865207a65726f2061646472657360008201527f7300000000000000000000000000000000000000000000000000000000000000602082015250565b6000613ace602183612d36565b9150613ad982613a72565b604082019050919050565b60006020820190508181036000830152613afd81613ac1565b9050919050565b7f45524332303a206275726e20616d6f756e7420657863656564732062616c616e60008201527f6365000000000000000000000000000000000000000000000000000000000000602082015250565b6000613b60602283612d36565b9150613b6b82613b04565b604082019050919050565b60006020820190508181036000830152613b8f81613b53565b9050919050565b6000613ba182612b15565b9150613bac83612b15565b925082821015613bbf57613bbe612b1f565b5b82820390509291505056fea264697066735822122031825068609c2bb2ab7b7dc98cb930564731ce5b1a55fbb69167907bb7bd1ac664736f6c634300080a0033",
  "immutableReferences": {},
  "source": "pragma solidity >=0.4.17 <0.9.0;\r\n\r\nimport \"@openzeppelin/contracts/token/ERC20/ERC20.sol\";\r\nimport \"@openzeppelin/contracts/access/Ownable.sol\";\r\n\r\ncontract NFTGame is ERC20, Ownable {\r\n    struct ChristmasChamp {\r\n        uint8 id;\r\n        uint256 damage;\r\n        uint256 health;\r\n        uint256 maxHealth;\r\n        uint8 level;\r\n        uint256 endurance;\r\n        uint256 lasteaten;\r\n        uint256 starvationTime;\r\n        address ownerAddress;\r\n        uint256 feedCost;\r\n    }\r\n\r\n    mapping(uint8 => address) public petowners;\r\n    mapping(uint8 => ChristmasChamp) public champs;\r\n    mapping(uint8 => uint8) public petPosition;\r\n    mapping(address => ChristmasChamp[]) public petList;\r\n\r\n    uint8 nextId = 0;   \r\n    \r\n    constructor() ERC20(\"CandyCane\", \"CC\") {\r\n\r\n    }\r\n\r\n    fallback() external payable {\r\n        uint amount = msg.value;\r\n        _mint(msg.sender, amount / ((totalSupply() + 1) / 10000 * (10 ** 4)));\r\n    }\r\n\r\n    function getOwnedChamps(address addr) public view returns(ChristmasChamp[] memory) {\r\n        return petList[addr];\r\n    }\r\n    \r\n    function mint(address addr, uint256 amount) external {\r\n        _mint(addr, amount * (10 ** 18));\r\n    }\r\n\r\n    function burn(address addr, uint256 amount) external {\r\n        _burn(addr, amount);\r\n    }\r\n\r\n    function dailyReward() public payable {\r\n        uint128 levels = 0;\r\n\r\n        ChristmasChamp[] memory owned = petList[msg.sender];\r\n\r\n        for(uint i = 0; i<owned.length; i++){\r\n            levels += owned[i].level;\r\n        }\r\n\r\n        _mint(msg.sender, levels);\r\n    }\r\n\r\n    function getNextId() public view returns (uint8 nextid) {\r\n        nextid = nextId;\r\n    }\r\n\r\n    function getChampById(uint8 champId) public view returns (ChristmasChamp memory champ) {\r\n        champ = champs[champId];\r\n\r\n        return champ;\r\n    }\r\n\r\n    function getLastEatenById(uint8 champId) public view returns (uint256 lasteaten) {\r\n        lasteaten = champs[champId].lasteaten;\r\n    }\r\n\r\n    function levelUpChamp(uint8 champId) public view {\r\n        ChristmasChamp memory champ = champs[champId];\r\n        champ.level += 1;\r\n        champ.feedCost += 100;\r\n        champ.maxHealth += 10;\r\n        champ.endurance += 100;\r\n        champ.damage += 10;\r\n        champ.lasteaten = block.timestamp;\r\n        champ.starvationTime = champ.lasteaten + champ.endurance;\r\n    }\r\n\r\n    function feed(uint8 champId) public payable {\r\n        ChristmasChamp memory champ = champs[champId];\r\n        require(_balances[msg.sender] >= champ.feedCost / (10**3));\r\n        levelUpChamp(champId);\r\n        champ.health = champ.maxHealth;\r\n    }\r\n\r\n    function transferChamp(address from, address to, uint8 champId) public {\r\n        ChristmasChamp memory champ = champs[champId];\r\n\r\n        champ.ownerAddress = to;\r\n\r\n        delete petList[from][petPosition[champId]];\r\n        \r\n        petList[to].push(champ);\r\n    }\r\n\r\n    function createChamp(address recipient) public returns (ChristmasChamp memory) {\r\n        ChristmasChamp storage champ = champs[nextId];\r\n\r\n        champ.id = nextId;\r\n        champ.damage = 5;\r\n        champ.health = 100;\r\n        champ.maxHealth = 100;\r\n        champ.level = 1;\r\n        champ.endurance = 10000;\r\n        champ.lasteaten = block.timestamp;\r\n        champ.starvationTime = champ.lasteaten + champ.endurance;\r\n        champ.ownerAddress = recipient;\r\n        champ.feedCost = 25;\r\n\r\n        petowners[nextId] = recipient;\r\n        petList[recipient].push(champs[nextId]);\r\n\r\n        nextId += 1;\r\n\r\n        return champs[nextId - 1];\r\n    }\r\n}",
  "sourcePath": "D:\\packages\\nft-game\\token\\contracts\\NFTGame.sol",
  "compiler": {
    "name": "solc",
    "version": "0.8.10+commit.fc410830.Emscripten.clang"
  },
  "schemaVersion": "3.4.4",
  "updatedAt": "2022-01-10T00:26:49.236Z",
  "networkType": "ethereum",
  "devdoc": {
    "kind": "dev",
    "methods": {
      "allowance(address,address)": {
        "details": "See {IERC20-allowance}."
      },
      "approve(address,uint256)": {
        "details": "See {IERC20-approve}. Requirements: - `spender` cannot be the zero address."
      },
      "balanceOf(address)": {
        "details": "See {IERC20-balanceOf}."
      },
      "decimals()": {
        "details": "Returns the number of decimals used to get its user representation. For example, if `decimals` equals `2`, a balance of `505` tokens should be displayed to a user as `5.05` (`505 / 10 ** 2`). Tokens usually opt for a value of 18, imitating the relationship between Ether and Wei. This is the value {ERC20} uses, unless this function is overridden; NOTE: This information is only used for _display_ purposes: it in no way affects any of the arithmetic of the contract, including {IERC20-balanceOf} and {IERC20-transfer}."
      },
      "decreaseAllowance(address,uint256)": {
        "details": "Atomically decreases the allowance granted to `spender` by the caller. This is an alternative to {approve} that can be used as a mitigation for problems described in {IERC20-approve}. Emits an {Approval} event indicating the updated allowance. Requirements: - `spender` cannot be the zero address. - `spender` must have allowance for the caller of at least `subtractedValue`."
      },
      "increaseAllowance(address,uint256)": {
        "details": "Atomically increases the allowance granted to `spender` by the caller. This is an alternative to {approve} that can be used as a mitigation for problems described in {IERC20-approve}. Emits an {Approval} event indicating the updated allowance. Requirements: - `spender` cannot be the zero address."
      },
      "name()": {
        "details": "Returns the name of the token."
      },
      "owner()": {
        "details": "Returns the address of the current owner."
      },
      "renounceOwnership()": {
        "details": "Leaves the contract without owner. It will not be possible to call `onlyOwner` functions anymore. Can only be called by the current owner. NOTE: Renouncing ownership will leave the contract without an owner, thereby removing any functionality that is only available to the owner."
      },
      "symbol()": {
        "details": "Returns the symbol of the token, usually a shorter version of the name."
      },
      "totalSupply()": {
        "details": "See {IERC20-totalSupply}."
      },
      "transfer(address,uint256)": {
        "details": "See {IERC20-transfer}. Requirements: - `recipient` cannot be the zero address. - the caller must have a balance of at least `amount`."
      },
      "transferFrom(address,address,uint256)": {
        "details": "See {IERC20-transferFrom}. Emits an {Approval} event indicating the updated allowance. This is not required by the EIP. See the note at the beginning of {ERC20}. Requirements: - `sender` and `recipient` cannot be the zero address. - `sender` must have a balance of at least `amount`. - the caller must have allowance for ``sender``'s tokens of at least `amount`."
      },
      "transferOwnership(address)": {
        "details": "Transfers ownership of the contract to a new account (`newOwner`). Can only be called by the current owner."
      }
    },
    "version": 1
  },
  "userdoc": {
    "kind": "user",
    "methods": {},
    "version": 1
  }
}